{
	"Fit2Earn.sol": {
		"Fit2Earn": {
			"abi": [
				{
					"inputs": [],
					"stateMutability": "nonpayable",
					"type": "constructor"
				},
				{
					"anonymous": false,
					"inputs": [
						{
							"indexed": true,
							"internalType": "address",
							"name": "user",
							"type": "address"
						},
						{
							"indexed": false,
							"internalType": "uint256",
							"name": "steps",
							"type": "uint256"
						},
						{
							"indexed": false,
							"internalType": "uint256",
							"name": "heartRate",
							"type": "uint256"
						},
						{
							"indexed": false,
							"internalType": "uint256",
							"name": "bloodPressure",
							"type": "uint256"
						}
					],
					"name": "HealthUpdated",
					"type": "event"
				},
				{
					"anonymous": false,
					"inputs": [
						{
							"indexed": true,
							"internalType": "address",
							"name": "user",
							"type": "address"
						},
						{
							"indexed": false,
							"internalType": "uint256",
							"name": "amount",
							"type": "uint256"
						}
					],
					"name": "RewardsClaimed",
					"type": "event"
				},
				{
					"anonymous": false,
					"inputs": [
						{
							"indexed": true,
							"internalType": "address",
							"name": "user",
							"type": "address"
						}
					],
					"name": "UserRegistered",
					"type": "event"
				},
				{
					"inputs": [],
					"name": "claimRewards",
					"outputs": [],
					"stateMutability": "nonpayable",
					"type": "function"
				},
				{
					"inputs": [
						{
							"internalType": "address",
							"name": "user",
							"type": "address"
						}
					],
					"name": "getUserData",
					"outputs": [
						{
							"internalType": "uint256",
							"name": "steps",
							"type": "uint256"
						},
						{
							"internalType": "uint256",
							"name": "heartRate",
							"type": "uint256"
						},
						{
							"internalType": "uint256",
							"name": "bloodPressure",
							"type": "uint256"
						},
						{
							"internalType": "uint256",
							"name": "rewards",
							"type": "uint256"
						}
					],
					"stateMutability": "view",
					"type": "function"
				},
				{
					"inputs": [],
					"name": "owner",
					"outputs": [
						{
							"internalType": "address",
							"name": "",
							"type": "address"
						}
					],
					"stateMutability": "view",
					"type": "function"
				},
				{
					"inputs": [],
					"name": "registerUser",
					"outputs": [],
					"stateMutability": "nonpayable",
					"type": "function"
				},
				{
					"inputs": [],
					"name": "rewardPerStep",
					"outputs": [
						{
							"internalType": "uint256",
							"name": "",
							"type": "uint256"
						}
					],
					"stateMutability": "view",
					"type": "function"
				},
				{
					"inputs": [
						{
							"internalType": "uint256",
							"name": "newSteps",
							"type": "uint256"
						},
						{
							"internalType": "uint256",
							"name": "heartRate",
							"type": "uint256"
						},
						{
							"internalType": "uint256",
							"name": "bloodPressure",
							"type": "uint256"
						}
					],
					"name": "updateHealthData",
					"outputs": [],
					"stateMutability": "nonpayable",
					"type": "function"
				},
				{
					"inputs": [
						{
							"internalType": "address",
							"name": "",
							"type": "address"
						}
					],
					"name": "users",
					"outputs": [
						{
							"internalType": "uint256",
							"name": "steps",
							"type": "uint256"
						},
						{
							"internalType": "uint256",
							"name": "heartRate",
							"type": "uint256"
						},
						{
							"internalType": "uint256",
							"name": "bloodPressure",
							"type": "uint256"
						},
						{
							"internalType": "uint256",
							"name": "rewards",
							"type": "uint256"
						},
						{
							"internalType": "bool",
							"name": "registered",
							"type": "bool"
						}
					],
					"stateMutability": "view",
					"type": "function"
				},
				{
					"stateMutability": "payable",
					"type": "receive"
				}
			],
			"devdoc": {
				"kind": "dev",
				"methods": {},
				"version": 1
			},
			"evm": {
				"assembly": "    /* \"Fit2Earn.sol\":61:2220  contract Fit2Earn {... */\n  mstore(0x40, 0x80)\n    /* \"Fit2Earn.sol\":352:353  1 */\n  0x01\n    /* \"Fit2Earn.sol\":321:353  uint256 public rewardPerStep = 1 */\n  0x02\n  sstore\n    /* \"Fit2Earn.sol\":612:663  constructor() {... */\n  callvalue\n  dup1\n  iszero\n  tag_1\n  jumpi\n  0x00\n  dup1\n  revert\ntag_1:\n  pop\n    /* \"Fit2Earn.sol\":645:655  msg.sender */\n  caller\n    /* \"Fit2Earn.sol\":637:642  owner */\n  0x01\n  0x00\n    /* \"Fit2Earn.sol\":637:655  owner = msg.sender */\n  0x0100\n  exp\n  dup2\n  sload\n  dup2\n  0xffffffffffffffffffffffffffffffffffffffff\n  mul\n  not\n  and\n  swap1\n  dup4\n  0xffffffffffffffffffffffffffffffffffffffff\n  and\n  mul\n  or\n  swap1\n  sstore\n  pop\n    /* \"Fit2Earn.sol\":61:2220  contract Fit2Earn {... */\n  dataSize(sub_0)\n  dup1\n  dataOffset(sub_0)\n  0x00\n  codecopy\n  0x00\n  return\nstop\n\nsub_0: assembly {\n        /* \"Fit2Earn.sol\":61:2220  contract Fit2Earn {... */\n      mstore(0x40, 0x80)\n      jumpi(tag_1, lt(calldatasize, 0x04))\n      shr(0xe0, calldataload(0x00))\n      dup1\n      0x4d3820eb\n      gt\n      tag_10\n      jumpi\n      dup1\n      0x4d3820eb\n      eq\n      tag_6\n      jumpi\n      dup1\n      0x8da5cb5b\n      eq\n      tag_7\n      jumpi\n      dup1\n      0xa87430ba\n      eq\n      tag_8\n      jumpi\n      dup1\n      0xffc9896b\n      eq\n      tag_9\n      jumpi\n      jump(tag_2)\n    tag_10:\n      dup1\n      0x05eddade\n      eq\n      tag_3\n      jumpi\n      dup1\n      0x372500ab\n      eq\n      tag_4\n      jumpi\n      dup1\n      0x3b431af7\n      eq\n      tag_5\n      jumpi\n      jump(tag_2)\n    tag_1:\n      jumpi(tag_2, calldatasize)\n      stop\n    tag_2:\n      0x00\n      dup1\n      revert\n        /* \"Fit2Earn.sol\":321:353  uint256 public rewardPerStep = 1 */\n    tag_3:\n      callvalue\n      dup1\n      iszero\n      tag_13\n      jumpi\n      0x00\n      dup1\n      revert\n    tag_13:\n      pop\n      tag_14\n      tag_15\n      jump\t// in\n    tag_14:\n      mload(0x40)\n      tag_16\n      swap2\n      swap1\n      tag_17\n      jump\t// in\n    tag_16:\n      mload(0x40)\n      dup1\n      swap2\n      sub\n      swap1\n      return\n        /* \"Fit2Earn.sol\":1778:2147  function claimRewards() external onlyRegistered {... */\n    tag_4:\n      callvalue\n      dup1\n      iszero\n      tag_18\n      jumpi\n      0x00\n      dup1\n      revert\n    tag_18:\n      pop\n      tag_19\n      tag_20\n      jump\t// in\n    tag_19:\n      stop\n        /* \"Fit2Earn.sol\":1016:1451  function updateHealthData(uint256 newSteps, uint256 heartRate, uint256 bloodPressure) external onlyRegistered {... */\n    tag_5:\n      callvalue\n      dup1\n      iszero\n      tag_21\n      jumpi\n      0x00\n      dup1\n      revert\n    tag_21:\n      pop\n      tag_22\n      0x04\n      dup1\n      calldatasize\n      sub\n      dup2\n      add\n      swap1\n      tag_23\n      swap2\n      swap1\n      tag_24\n      jump\t// in\n    tag_23:\n      tag_25\n      jump\t// in\n    tag_22:\n      stop\n        /* \"Fit2Earn.sol\":796:1008  function registerUser() external {... */\n    tag_6:\n      callvalue\n      dup1\n      iszero\n      tag_26\n      jumpi\n      0x00\n      dup1\n      revert\n    tag_26:\n      pop\n      tag_27\n      tag_28\n      jump\t// in\n    tag_27:\n      stop\n        /* \"Fit2Earn.sol\":294:314  address public owner */\n    tag_7:\n      callvalue\n      dup1\n      iszero\n      tag_29\n      jumpi\n      0x00\n      dup1\n      revert\n    tag_29:\n      pop\n      tag_30\n      tag_31\n      jump\t// in\n    tag_30:\n      mload(0x40)\n      tag_32\n      swap2\n      swap1\n      tag_33\n      jump\t// in\n    tag_32:\n      mload(0x40)\n      dup1\n      swap2\n      sub\n      swap1\n      return\n        /* \"Fit2Earn.sol\":250:287  mapping(address => User) public users */\n    tag_8:\n      callvalue\n      dup1\n      iszero\n      tag_34\n      jumpi\n      0x00\n      dup1\n      revert\n    tag_34:\n      pop\n      tag_35\n      0x04\n      dup1\n      calldatasize\n      sub\n      dup2\n      add\n      swap1\n      tag_36\n      swap2\n      swap1\n      tag_37\n      jump\t// in\n    tag_36:\n      tag_38\n      jump\t// in\n    tag_35:\n      mload(0x40)\n      tag_39\n      swap6\n      swap5\n      swap4\n      swap3\n      swap2\n      swap1\n      tag_40\n      jump\t// in\n    tag_39:\n      mload(0x40)\n      dup1\n      swap2\n      sub\n      swap1\n      return\n        /* \"Fit2Earn.sol\":1459:1770  function getUserData(address user) external view returns (uint256 steps, uint256 heartRate, uint256 bloodPressure, uint256 rewards) {... */\n    tag_9:\n      callvalue\n      dup1\n      iszero\n      tag_41\n      jumpi\n      0x00\n      dup1\n      revert\n    tag_41:\n      pop\n      tag_42\n      0x04\n      dup1\n      calldatasize\n      sub\n      dup2\n      add\n      swap1\n      tag_43\n      swap2\n      swap1\n      tag_37\n      jump\t// in\n    tag_43:\n      tag_44\n      jump\t// in\n    tag_42:\n      mload(0x40)\n      tag_45\n      swap5\n      swap4\n      swap3\n      swap2\n      swap1\n      tag_46\n      jump\t// in\n    tag_45:\n      mload(0x40)\n      dup1\n      swap2\n      sub\n      swap1\n      return\n        /* \"Fit2Earn.sol\":321:353  uint256 public rewardPerStep = 1 */\n    tag_15:\n      sload(0x02)\n      dup2\n      jump\t// out\n        /* \"Fit2Earn.sol\":1778:2147  function claimRewards() external onlyRegistered {... */\n    tag_20:\n        /* \"Fit2Earn.sol\":716:721  users */\n      0x00\n        /* \"Fit2Earn.sol\":716:733  users[msg.sender] */\n      dup1\n        /* \"Fit2Earn.sol\":722:732  msg.sender */\n      caller\n        /* \"Fit2Earn.sol\":716:733  users[msg.sender] */\n      0xffffffffffffffffffffffffffffffffffffffff\n      and\n      0xffffffffffffffffffffffffffffffffffffffff\n      and\n      dup2\n      mstore\n      0x20\n      add\n      swap1\n      dup2\n      mstore\n      0x20\n      add\n      0x00\n      keccak256\n        /* \"Fit2Earn.sol\":716:744  users[msg.sender].registered */\n      0x04\n      add\n      0x00\n      swap1\n      sload\n      swap1\n      0x0100\n      exp\n      swap1\n      div\n      0xff\n      and\n        /* \"Fit2Earn.sol\":708:768  require(users[msg.sender].registered, \"User not registered\") */\n      tag_48\n      jumpi\n      mload(0x40)\n      0x08c379a000000000000000000000000000000000000000000000000000000000\n      dup2\n      mstore\n      0x04\n      add\n      tag_49\n      swap1\n      tag_50\n      jump\t// in\n    tag_49:\n      mload(0x40)\n      dup1\n      swap2\n      sub\n      swap1\n      revert\n    tag_48:\n        /* \"Fit2Earn.sol\":1837:1852  uint256 rewards */\n      0x00\n        /* \"Fit2Earn.sol\":1855:1860  users */\n      dup1\n        /* \"Fit2Earn.sol\":1855:1872  users[msg.sender] */\n      0x00\n        /* \"Fit2Earn.sol\":1861:1871  msg.sender */\n      caller\n        /* \"Fit2Earn.sol\":1855:1872  users[msg.sender] */\n      0xffffffffffffffffffffffffffffffffffffffff\n      and\n      0xffffffffffffffffffffffffffffffffffffffff\n      and\n      dup2\n      mstore\n      0x20\n      add\n      swap1\n      dup2\n      mstore\n      0x20\n      add\n      0x00\n      keccak256\n        /* \"Fit2Earn.sol\":1855:1880  users[msg.sender].rewards */\n      0x03\n      add\n      sload\n        /* \"Fit2Earn.sol\":1837:1880  uint256 rewards = users[msg.sender].rewards */\n      swap1\n      pop\n        /* \"Fit2Earn.sol\":1909:1910  0 */\n      0x00\n        /* \"Fit2Earn.sol\":1899:1906  rewards */\n      dup2\n        /* \"Fit2Earn.sol\":1899:1910  rewards > 0 */\n      gt\n        /* \"Fit2Earn.sol\":1891:1934  require(rewards > 0, \"No rewards to claim\") */\n      tag_52\n      jumpi\n      mload(0x40)\n      0x08c379a000000000000000000000000000000000000000000000000000000000\n      dup2\n      mstore\n      0x04\n      add\n      tag_53\n      swap1\n      tag_54\n      jump\t// in\n    tag_53:\n      mload(0x40)\n      dup1\n      swap2\n      sub\n      swap1\n      revert\n    tag_52:\n        /* \"Fit2Earn.sol\":1973:1974  0 */\n      0x00\n        /* \"Fit2Earn.sol\":1945:1950  users */\n      dup1\n        /* \"Fit2Earn.sol\":1945:1962  users[msg.sender] */\n      0x00\n        /* \"Fit2Earn.sol\":1951:1961  msg.sender */\n      caller\n        /* \"Fit2Earn.sol\":1945:1962  users[msg.sender] */\n      0xffffffffffffffffffffffffffffffffffffffff\n      and\n      0xffffffffffffffffffffffffffffffffffffffff\n      and\n      dup2\n      mstore\n      0x20\n      add\n      swap1\n      dup2\n      mstore\n      0x20\n      add\n      0x00\n      keccak256\n        /* \"Fit2Earn.sol\":1945:1970  users[msg.sender].rewards */\n      0x03\n      add\n        /* \"Fit2Earn.sol\":1945:1974  users[msg.sender].rewards = 0 */\n      dup2\n      swap1\n      sstore\n      pop\n        /* \"Fit2Earn.sol\":2005:2015  msg.sender */\n      caller\n        /* \"Fit2Earn.sol\":1990:2025  RewardsClaimed(msg.sender, rewards) */\n      0xffffffffffffffffffffffffffffffffffffffff\n      and\n      0xfc30cddea38e2bf4d6ea7d3f9ed3b6ad7f176419f4963bd81318067a4aee73fe\n        /* \"Fit2Earn.sol\":2017:2024  rewards */\n      dup3\n        /* \"Fit2Earn.sol\":1990:2025  RewardsClaimed(msg.sender, rewards) */\n      mload(0x40)\n      tag_55\n      swap2\n      swap1\n      tag_17\n      jump\t// in\n    tag_55:\n      mload(0x40)\n      dup1\n      swap2\n      sub\n      swap1\n      log2\n        /* \"Fit2Earn.sol\":2044:2054  msg.sender */\n      caller\n        /* \"Fit2Earn.sol\":2036:2064  payable(msg.sender).transfer */\n      0xffffffffffffffffffffffffffffffffffffffff\n      and\n        /* \"Fit2Earn.sol\":2036:2073  payable(msg.sender).transfer(rewards) */\n      0x08fc\n        /* \"Fit2Earn.sol\":2065:2072  rewards */\n      dup3\n        /* \"Fit2Earn.sol\":2036:2073  payable(msg.sender).transfer(rewards) */\n      swap1\n      dup2\n      iszero\n      mul\n      swap1\n      mload(0x40)\n      0x00\n      mload(0x40)\n      dup1\n      dup4\n      sub\n      dup2\n      dup6\n      dup9\n      dup9\n      call\n      swap4\n      pop\n      pop\n      pop\n      pop\n      iszero\n      dup1\n      iszero\n      tag_57\n      jumpi\n      returndatasize\n      0x00\n      dup1\n      returndatacopy\n      revert(0x00, returndatasize)\n    tag_57:\n      pop\n        /* \"Fit2Earn.sol\":1826:2147  {... */\n      pop\n        /* \"Fit2Earn.sol\":1778:2147  function claimRewards() external onlyRegistered {... */\n      jump\t// out\n        /* \"Fit2Earn.sol\":1016:1451  function updateHealthData(uint256 newSteps, uint256 heartRate, uint256 bloodPressure) external onlyRegistered {... */\n    tag_25:\n        /* \"Fit2Earn.sol\":716:721  users */\n      0x00\n        /* \"Fit2Earn.sol\":716:733  users[msg.sender] */\n      dup1\n        /* \"Fit2Earn.sol\":722:732  msg.sender */\n      caller\n        /* \"Fit2Earn.sol\":716:733  users[msg.sender] */\n      0xffffffffffffffffffffffffffffffffffffffff\n      and\n      0xffffffffffffffffffffffffffffffffffffffff\n      and\n      dup2\n      mstore\n      0x20\n      add\n      swap1\n      dup2\n      mstore\n      0x20\n      add\n      0x00\n      keccak256\n        /* \"Fit2Earn.sol\":716:744  users[msg.sender].registered */\n      0x04\n      add\n      0x00\n      swap1\n      sload\n      swap1\n      0x0100\n      exp\n      swap1\n      div\n      0xff\n      and\n        /* \"Fit2Earn.sol\":708:768  require(users[msg.sender].registered, \"User not registered\") */\n      tag_59\n      jumpi\n      mload(0x40)\n      0x08c379a000000000000000000000000000000000000000000000000000000000\n      dup2\n      mstore\n      0x04\n      add\n      tag_60\n      swap1\n      tag_50\n      jump\t// in\n    tag_60:\n      mload(0x40)\n      dup1\n      swap2\n      sub\n      swap1\n      revert\n    tag_59:\n        /* \"Fit2Earn.sol\":1164:1172  newSteps */\n      dup3\n        /* \"Fit2Earn.sol\":1137:1142  users */\n      0x00\n        /* \"Fit2Earn.sol\":1137:1154  users[msg.sender] */\n      dup1\n        /* \"Fit2Earn.sol\":1143:1153  msg.sender */\n      caller\n        /* \"Fit2Earn.sol\":1137:1154  users[msg.sender] */\n      0xffffffffffffffffffffffffffffffffffffffff\n      and\n      0xffffffffffffffffffffffffffffffffffffffff\n      and\n      dup2\n      mstore\n      0x20\n      add\n      swap1\n      dup2\n      mstore\n      0x20\n      add\n      0x00\n      keccak256\n        /* \"Fit2Earn.sol\":1137:1160  users[msg.sender].steps */\n      0x00\n      add\n      0x00\n        /* \"Fit2Earn.sol\":1137:1172  users[msg.sender].steps += newSteps */\n      dup3\n      dup3\n      sload\n      tag_62\n      swap2\n      swap1\n      tag_63\n      jump\t// in\n    tag_62:\n      swap3\n      pop\n      pop\n      dup2\n      swap1\n      sstore\n      pop\n        /* \"Fit2Earn.sol\":1213:1222  heartRate */\n      dup2\n        /* \"Fit2Earn.sol\":1183:1188  users */\n      0x00\n        /* \"Fit2Earn.sol\":1183:1200  users[msg.sender] */\n      dup1\n        /* \"Fit2Earn.sol\":1189:1199  msg.sender */\n      caller\n        /* \"Fit2Earn.sol\":1183:1200  users[msg.sender] */\n      0xffffffffffffffffffffffffffffffffffffffff\n      and\n      0xffffffffffffffffffffffffffffffffffffffff\n      and\n      dup2\n      mstore\n      0x20\n      add\n      swap1\n      dup2\n      mstore\n      0x20\n      add\n      0x00\n      keccak256\n        /* \"Fit2Earn.sol\":1183:1210  users[msg.sender].heartRate */\n      0x01\n      add\n        /* \"Fit2Earn.sol\":1183:1222  users[msg.sender].heartRate = heartRate */\n      dup2\n      swap1\n      sstore\n      pop\n        /* \"Fit2Earn.sol\":1267:1280  bloodPressure */\n      dup1\n        /* \"Fit2Earn.sol\":1233:1238  users */\n      0x00\n        /* \"Fit2Earn.sol\":1233:1250  users[msg.sender] */\n      dup1\n        /* \"Fit2Earn.sol\":1239:1249  msg.sender */\n      caller\n        /* \"Fit2Earn.sol\":1233:1250  users[msg.sender] */\n      0xffffffffffffffffffffffffffffffffffffffff\n      and\n      0xffffffffffffffffffffffffffffffffffffffff\n      and\n      dup2\n      mstore\n      0x20\n      add\n      swap1\n      dup2\n      mstore\n      0x20\n      add\n      0x00\n      keccak256\n        /* \"Fit2Earn.sol\":1233:1264  users[msg.sender].bloodPressure */\n      0x02\n      add\n        /* \"Fit2Earn.sol\":1233:1280  users[msg.sender].bloodPressure = bloodPressure */\n      dup2\n      swap1\n      sstore\n      pop\n        /* \"Fit2Earn.sol\":1331:1344  rewardPerStep */\n      sload(0x02)\n        /* \"Fit2Earn.sol\":1320:1328  newSteps */\n      dup4\n        /* \"Fit2Earn.sol\":1320:1344  newSteps * rewardPerStep */\n      tag_64\n      swap2\n      swap1\n      tag_65\n      jump\t// in\n    tag_64:\n        /* \"Fit2Earn.sol\":1291:1296  users */\n      0x00\n        /* \"Fit2Earn.sol\":1291:1308  users[msg.sender] */\n      dup1\n        /* \"Fit2Earn.sol\":1297:1307  msg.sender */\n      caller\n        /* \"Fit2Earn.sol\":1291:1308  users[msg.sender] */\n      0xffffffffffffffffffffffffffffffffffffffff\n      and\n      0xffffffffffffffffffffffffffffffffffffffff\n      and\n      dup2\n      mstore\n      0x20\n      add\n      swap1\n      dup2\n      mstore\n      0x20\n      add\n      0x00\n      keccak256\n        /* \"Fit2Earn.sol\":1291:1316  users[msg.sender].rewards */\n      0x03\n      add\n      0x00\n        /* \"Fit2Earn.sol\":1291:1344  users[msg.sender].rewards += newSteps * rewardPerStep */\n      dup3\n      dup3\n      sload\n      tag_66\n      swap2\n      swap1\n      tag_63\n      jump\t// in\n    tag_66:\n      swap3\n      pop\n      pop\n      dup2\n      swap1\n      sstore\n      pop\n        /* \"Fit2Earn.sol\":1396:1406  msg.sender */\n      caller\n        /* \"Fit2Earn.sol\":1382:1443  HealthUpdated(msg.sender, newSteps, heartRate, bloodPressure) */\n      0xffffffffffffffffffffffffffffffffffffffff\n      and\n      0x122ea631e39d40302dd521cd06fc54947c0304ae484a834aa0ca92fe85a437fb\n        /* \"Fit2Earn.sol\":1408:1416  newSteps */\n      dup5\n        /* \"Fit2Earn.sol\":1418:1427  heartRate */\n      dup5\n        /* \"Fit2Earn.sol\":1429:1442  bloodPressure */\n      dup5\n        /* \"Fit2Earn.sol\":1382:1443  HealthUpdated(msg.sender, newSteps, heartRate, bloodPressure) */\n      mload(0x40)\n      tag_67\n      swap4\n      swap3\n      swap2\n      swap1\n      tag_68\n      jump\t// in\n    tag_67:\n      mload(0x40)\n      dup1\n      swap2\n      sub\n      swap1\n      log2\n        /* \"Fit2Earn.sol\":1016:1451  function updateHealthData(uint256 newSteps, uint256 heartRate, uint256 bloodPressure) external onlyRegistered {... */\n      pop\n      pop\n      pop\n      jump\t// out\n        /* \"Fit2Earn.sol\":796:1008  function registerUser() external {... */\n    tag_28:\n        /* \"Fit2Earn.sol\":849:854  users */\n      0x00\n        /* \"Fit2Earn.sol\":849:866  users[msg.sender] */\n      dup1\n        /* \"Fit2Earn.sol\":855:865  msg.sender */\n      caller\n        /* \"Fit2Earn.sol\":849:866  users[msg.sender] */\n      0xffffffffffffffffffffffffffffffffffffffff\n      and\n      0xffffffffffffffffffffffffffffffffffffffff\n      and\n      dup2\n      mstore\n      0x20\n      add\n      swap1\n      dup2\n      mstore\n      0x20\n      add\n      0x00\n      keccak256\n        /* \"Fit2Earn.sol\":849:877  users[msg.sender].registered */\n      0x04\n      add\n      0x00\n      swap1\n      sload\n      swap1\n      0x0100\n      exp\n      swap1\n      div\n      0xff\n      and\n        /* \"Fit2Earn.sol\":848:877  !users[msg.sender].registered */\n      iszero\n        /* \"Fit2Earn.sol\":840:905  require(!users[msg.sender].registered, \"User already registered\") */\n      tag_70\n      jumpi\n      mload(0x40)\n      0x08c379a000000000000000000000000000000000000000000000000000000000\n      dup2\n      mstore\n      0x04\n      add\n      tag_71\n      swap1\n      tag_72\n      jump\t// in\n    tag_71:\n      mload(0x40)\n      dup1\n      swap2\n      sub\n      swap1\n      revert\n    tag_70:\n        /* \"Fit2Earn.sol\":936:958  User(0, 0, 0, 0, true) */\n      mload(0x40)\n      dup1\n      0xa0\n      add\n      0x40\n      mstore\n      dup1\n        /* \"Fit2Earn.sol\":941:942  0 */\n      0x00\n        /* \"Fit2Earn.sol\":936:958  User(0, 0, 0, 0, true) */\n      dup2\n      mstore\n      0x20\n      add\n        /* \"Fit2Earn.sol\":944:945  0 */\n      0x00\n        /* \"Fit2Earn.sol\":936:958  User(0, 0, 0, 0, true) */\n      dup2\n      mstore\n      0x20\n      add\n        /* \"Fit2Earn.sol\":947:948  0 */\n      0x00\n        /* \"Fit2Earn.sol\":936:958  User(0, 0, 0, 0, true) */\n      dup2\n      mstore\n      0x20\n      add\n        /* \"Fit2Earn.sol\":950:951  0 */\n      0x00\n        /* \"Fit2Earn.sol\":936:958  User(0, 0, 0, 0, true) */\n      dup2\n      mstore\n      0x20\n      add\n        /* \"Fit2Earn.sol\":953:957  true */\n      0x01\n        /* \"Fit2Earn.sol\":936:958  User(0, 0, 0, 0, true) */\n      iszero\n      iszero\n      dup2\n      mstore\n      pop\n        /* \"Fit2Earn.sol\":916:921  users */\n      0x00\n        /* \"Fit2Earn.sol\":916:933  users[msg.sender] */\n      dup1\n        /* \"Fit2Earn.sol\":922:932  msg.sender */\n      caller\n        /* \"Fit2Earn.sol\":916:933  users[msg.sender] */\n      0xffffffffffffffffffffffffffffffffffffffff\n      and\n      0xffffffffffffffffffffffffffffffffffffffff\n      and\n      dup2\n      mstore\n      0x20\n      add\n      swap1\n      dup2\n      mstore\n      0x20\n      add\n      0x00\n      keccak256\n        /* \"Fit2Earn.sol\":916:958  users[msg.sender] = User(0, 0, 0, 0, true) */\n      0x00\n      dup3\n      add\n      mload\n      dup2\n      0x00\n      add\n      sstore\n      0x20\n      dup3\n      add\n      mload\n      dup2\n      0x01\n      add\n      sstore\n      0x40\n      dup3\n      add\n      mload\n      dup2\n      0x02\n      add\n      sstore\n      0x60\n      dup3\n      add\n      mload\n      dup2\n      0x03\n      add\n      sstore\n      0x80\n      dup3\n      add\n      mload\n      dup2\n      0x04\n      add\n      exp(0x0100, 0x00)\n      dup2\n      sload\n      dup2\n      0xff\n      mul\n      not\n      and\n      swap1\n      dup4\n      iszero\n      iszero\n      mul\n      or\n      swap1\n      sstore\n      pop\n      swap1\n      pop\n      pop\n        /* \"Fit2Earn.sol\":989:999  msg.sender */\n      caller\n        /* \"Fit2Earn.sol\":974:1000  UserRegistered(msg.sender) */\n      0xffffffffffffffffffffffffffffffffffffffff\n      and\n      0x54db7a5cb4735e1aac1f53db512d3390390bb6637bd30ad4bf9fc98667d9b9b9\n      mload(0x40)\n      mload(0x40)\n      dup1\n      swap2\n      sub\n      swap1\n      log2\n        /* \"Fit2Earn.sol\":796:1008  function registerUser() external {... */\n      jump\t// out\n        /* \"Fit2Earn.sol\":294:314  address public owner */\n    tag_31:\n      0x01\n      0x00\n      swap1\n      sload\n      swap1\n      0x0100\n      exp\n      swap1\n      div\n      0xffffffffffffffffffffffffffffffffffffffff\n      and\n      dup2\n      jump\t// out\n        /* \"Fit2Earn.sol\":250:287  mapping(address => User) public users */\n    tag_38:\n      mstore(0x20, 0x00)\n      dup1\n      0x00\n      mstore\n      keccak256(0x00, 0x40)\n      0x00\n      swap2\n      pop\n      swap1\n      pop\n      dup1\n      0x00\n      add\n      sload\n      swap1\n      dup1\n      0x01\n      add\n      sload\n      swap1\n      dup1\n      0x02\n      add\n      sload\n      swap1\n      dup1\n      0x03\n      add\n      sload\n      swap1\n      dup1\n      0x04\n      add\n      0x00\n      swap1\n      sload\n      swap1\n      0x0100\n      exp\n      swap1\n      div\n      0xff\n      and\n      swap1\n      pop\n      dup6\n      jump\t// out\n        /* \"Fit2Earn.sol\":1459:1770  function getUserData(address user) external view returns (uint256 steps, uint256 heartRate, uint256 bloodPressure, uint256 rewards) {... */\n    tag_44:\n        /* \"Fit2Earn.sol\":1517:1530  uint256 steps */\n      0x00\n        /* \"Fit2Earn.sol\":1532:1549  uint256 heartRate */\n      dup1\n        /* \"Fit2Earn.sol\":1551:1572  uint256 bloodPressure */\n      0x00\n        /* \"Fit2Earn.sol\":1574:1589  uint256 rewards */\n      dup1\n        /* \"Fit2Earn.sol\":1610:1615  users */\n      0x00\n        /* \"Fit2Earn.sol\":1610:1621  users[user] */\n      dup1\n        /* \"Fit2Earn.sol\":1616:1620  user */\n      dup7\n        /* \"Fit2Earn.sol\":1610:1621  users[user] */\n      0xffffffffffffffffffffffffffffffffffffffff\n      and\n      0xffffffffffffffffffffffffffffffffffffffff\n      and\n      dup2\n      mstore\n      0x20\n      add\n      swap1\n      dup2\n      mstore\n      0x20\n      add\n      0x00\n      keccak256\n        /* \"Fit2Earn.sol\":1610:1632  users[user].registered */\n      0x04\n      add\n      0x00\n      swap1\n      sload\n      swap1\n      0x0100\n      exp\n      swap1\n      div\n      0xff\n      and\n        /* \"Fit2Earn.sol\":1602:1656  require(users[user].registered, \"User not registered\") */\n      tag_74\n      jumpi\n      mload(0x40)\n      0x08c379a000000000000000000000000000000000000000000000000000000000\n      dup2\n      mstore\n      0x04\n      add\n      tag_75\n      swap1\n      tag_50\n      jump\t// in\n    tag_75:\n      mload(0x40)\n      dup1\n      swap2\n      sub\n      swap1\n      revert\n    tag_74:\n        /* \"Fit2Earn.sol\":1667:1680  User memory u */\n      0x00\n        /* \"Fit2Earn.sol\":1683:1688  users */\n      dup1\n        /* \"Fit2Earn.sol\":1683:1694  users[user] */\n      0x00\n        /* \"Fit2Earn.sol\":1689:1693  user */\n      dup8\n        /* \"Fit2Earn.sol\":1683:1694  users[user] */\n      0xffffffffffffffffffffffffffffffffffffffff\n      and\n      0xffffffffffffffffffffffffffffffffffffffff\n      and\n      dup2\n      mstore\n      0x20\n      add\n      swap1\n      dup2\n      mstore\n      0x20\n      add\n      0x00\n      keccak256\n        /* \"Fit2Earn.sol\":1667:1694  User memory u = users[user] */\n      mload(0x40)\n      dup1\n      0xa0\n      add\n      0x40\n      mstore\n      swap1\n      dup2\n      0x00\n      dup3\n      add\n      sload\n      dup2\n      mstore\n      0x20\n      add\n      0x01\n      dup3\n      add\n      sload\n      dup2\n      mstore\n      0x20\n      add\n      0x02\n      dup3\n      add\n      sload\n      dup2\n      mstore\n      0x20\n      add\n      0x03\n      dup3\n      add\n      sload\n      dup2\n      mstore\n      0x20\n      add\n      0x04\n      dup3\n      add\n      0x00\n      swap1\n      sload\n      swap1\n      0x0100\n      exp\n      swap1\n      div\n      0xff\n      and\n      iszero\n      iszero\n      iszero\n      iszero\n      dup2\n      mstore\n      pop\n      pop\n      swap1\n      pop\n        /* \"Fit2Earn.sol\":1713:1714  u */\n      dup1\n        /* \"Fit2Earn.sol\":1713:1720  u.steps */\n      0x00\n      add\n      mload\n        /* \"Fit2Earn.sol\":1722:1723  u */\n      dup2\n        /* \"Fit2Earn.sol\":1722:1733  u.heartRate */\n      0x20\n      add\n      mload\n        /* \"Fit2Earn.sol\":1735:1736  u */\n      dup3\n        /* \"Fit2Earn.sol\":1735:1750  u.bloodPressure */\n      0x40\n      add\n      mload\n        /* \"Fit2Earn.sol\":1752:1753  u */\n      dup4\n        /* \"Fit2Earn.sol\":1752:1761  u.rewards */\n      0x60\n      add\n      mload\n        /* \"Fit2Earn.sol\":1705:1762  return (u.steps, u.heartRate, u.bloodPressure, u.rewards) */\n      swap5\n      pop\n      swap5\n      pop\n      swap5\n      pop\n      swap5\n      pop\n      pop\n        /* \"Fit2Earn.sol\":1459:1770  function getUserData(address user) external view returns (uint256 steps, uint256 heartRate, uint256 bloodPressure, uint256 rewards) {... */\n      swap2\n      swap4\n      pop\n      swap2\n      swap4\n      jump\t// out\n        /* \"#utility.yul\":7:84   */\n    tag_76:\n        /* \"#utility.yul\":44:51   */\n      0x00\n        /* \"#utility.yul\":73:78   */\n      dup2\n        /* \"#utility.yul\":62:78   */\n      swap1\n      pop\n        /* \"#utility.yul\":7:84   */\n      swap2\n      swap1\n      pop\n      jump\t// out\n        /* \"#utility.yul\":90:208   */\n    tag_77:\n        /* \"#utility.yul\":177:201   */\n      tag_101\n        /* \"#utility.yul\":195:200   */\n      dup2\n        /* \"#utility.yul\":177:201   */\n      tag_76\n      jump\t// in\n    tag_101:\n        /* \"#utility.yul\":172:175   */\n      dup3\n        /* \"#utility.yul\":165:202   */\n      mstore\n        /* \"#utility.yul\":90:208   */\n      pop\n      pop\n      jump\t// out\n        /* \"#utility.yul\":214:436   */\n    tag_17:\n        /* \"#utility.yul\":307:311   */\n      0x00\n        /* \"#utility.yul\":345:347   */\n      0x20\n        /* \"#utility.yul\":334:343   */\n      dup3\n        /* \"#utility.yul\":330:348   */\n      add\n        /* \"#utility.yul\":322:348   */\n      swap1\n      pop\n        /* \"#utility.yul\":358:429   */\n      tag_103\n        /* \"#utility.yul\":426:427   */\n      0x00\n        /* \"#utility.yul\":415:424   */\n      dup4\n        /* \"#utility.yul\":411:428   */\n      add\n        /* \"#utility.yul\":402:408   */\n      dup5\n        /* \"#utility.yul\":358:429   */\n      tag_77\n      jump\t// in\n    tag_103:\n        /* \"#utility.yul\":214:436   */\n      swap3\n      swap2\n      pop\n      pop\n      jump\t// out\n        /* \"#utility.yul\":523:640   */\n    tag_79:\n        /* \"#utility.yul\":632:633   */\n      0x00\n        /* \"#utility.yul\":629:630   */\n      dup1\n        /* \"#utility.yul\":622:634   */\n      revert\n        /* \"#utility.yul\":769:891   */\n    tag_81:\n        /* \"#utility.yul\":842:866   */\n      tag_108\n        /* \"#utility.yul\":860:865   */\n      dup2\n        /* \"#utility.yul\":842:866   */\n      tag_76\n      jump\t// in\n    tag_108:\n        /* \"#utility.yul\":835:840   */\n      dup2\n        /* \"#utility.yul\":832:867   */\n      eq\n        /* \"#utility.yul\":822:885   */\n      tag_109\n      jumpi\n        /* \"#utility.yul\":881:882   */\n      0x00\n        /* \"#utility.yul\":878:879   */\n      dup1\n        /* \"#utility.yul\":871:883   */\n      revert\n        /* \"#utility.yul\":822:885   */\n    tag_109:\n        /* \"#utility.yul\":769:891   */\n      pop\n      jump\t// out\n        /* \"#utility.yul\":897:1036   */\n    tag_82:\n        /* \"#utility.yul\":943:948   */\n      0x00\n        /* \"#utility.yul\":981:987   */\n      dup2\n        /* \"#utility.yul\":968:988   */\n      calldataload\n        /* \"#utility.yul\":959:988   */\n      swap1\n      pop\n        /* \"#utility.yul\":997:1030   */\n      tag_111\n        /* \"#utility.yul\":1024:1029   */\n      dup2\n        /* \"#utility.yul\":997:1030   */\n      tag_81\n      jump\t// in\n    tag_111:\n        /* \"#utility.yul\":897:1036   */\n      swap3\n      swap2\n      pop\n      pop\n      jump\t// out\n        /* \"#utility.yul\":1042:1661   */\n    tag_24:\n        /* \"#utility.yul\":1119:1125   */\n      0x00\n        /* \"#utility.yul\":1127:1133   */\n      dup1\n        /* \"#utility.yul\":1135:1141   */\n      0x00\n        /* \"#utility.yul\":1184:1186   */\n      0x60\n        /* \"#utility.yul\":1172:1181   */\n      dup5\n        /* \"#utility.yul\":1163:1170   */\n      dup7\n        /* \"#utility.yul\":1159:1182   */\n      sub\n        /* \"#utility.yul\":1155:1187   */\n      slt\n        /* \"#utility.yul\":1152:1271   */\n      iszero\n      tag_113\n      jumpi\n        /* \"#utility.yul\":1190:1269   */\n      tag_114\n      tag_79\n      jump\t// in\n    tag_114:\n        /* \"#utility.yul\":1152:1271   */\n    tag_113:\n        /* \"#utility.yul\":1310:1311   */\n      0x00\n        /* \"#utility.yul\":1335:1388   */\n      tag_115\n        /* \"#utility.yul\":1380:1387   */\n      dup7\n        /* \"#utility.yul\":1371:1377   */\n      dup3\n        /* \"#utility.yul\":1360:1369   */\n      dup8\n        /* \"#utility.yul\":1356:1378   */\n      add\n        /* \"#utility.yul\":1335:1388   */\n      tag_82\n      jump\t// in\n    tag_115:\n        /* \"#utility.yul\":1325:1388   */\n      swap4\n      pop\n        /* \"#utility.yul\":1281:1398   */\n      pop\n        /* \"#utility.yul\":1437:1439   */\n      0x20\n        /* \"#utility.yul\":1463:1516   */\n      tag_116\n        /* \"#utility.yul\":1508:1515   */\n      dup7\n        /* \"#utility.yul\":1499:1505   */\n      dup3\n        /* \"#utility.yul\":1488:1497   */\n      dup8\n        /* \"#utility.yul\":1484:1506   */\n      add\n        /* \"#utility.yul\":1463:1516   */\n      tag_82\n      jump\t// in\n    tag_116:\n        /* \"#utility.yul\":1453:1516   */\n      swap3\n      pop\n        /* \"#utility.yul\":1408:1526   */\n      pop\n        /* \"#utility.yul\":1565:1567   */\n      0x40\n        /* \"#utility.yul\":1591:1644   */\n      tag_117\n        /* \"#utility.yul\":1636:1643   */\n      dup7\n        /* \"#utility.yul\":1627:1633   */\n      dup3\n        /* \"#utility.yul\":1616:1625   */\n      dup8\n        /* \"#utility.yul\":1612:1634   */\n      add\n        /* \"#utility.yul\":1591:1644   */\n      tag_82\n      jump\t// in\n    tag_117:\n        /* \"#utility.yul\":1581:1644   */\n      swap2\n      pop\n        /* \"#utility.yul\":1536:1654   */\n      pop\n        /* \"#utility.yul\":1042:1661   */\n      swap3\n      pop\n      swap3\n      pop\n      swap3\n      jump\t// out\n        /* \"#utility.yul\":1667:1793   */\n    tag_83:\n        /* \"#utility.yul\":1704:1711   */\n      0x00\n        /* \"#utility.yul\":1744:1786   */\n      0xffffffffffffffffffffffffffffffffffffffff\n        /* \"#utility.yul\":1737:1742   */\n      dup3\n        /* \"#utility.yul\":1733:1787   */\n      and\n        /* \"#utility.yul\":1722:1787   */\n      swap1\n      pop\n        /* \"#utility.yul\":1667:1793   */\n      swap2\n      swap1\n      pop\n      jump\t// out\n        /* \"#utility.yul\":1799:1895   */\n    tag_84:\n        /* \"#utility.yul\":1836:1843   */\n      0x00\n        /* \"#utility.yul\":1865:1889   */\n      tag_120\n        /* \"#utility.yul\":1883:1888   */\n      dup3\n        /* \"#utility.yul\":1865:1889   */\n      tag_83\n      jump\t// in\n    tag_120:\n        /* \"#utility.yul\":1854:1889   */\n      swap1\n      pop\n        /* \"#utility.yul\":1799:1895   */\n      swap2\n      swap1\n      pop\n      jump\t// out\n        /* \"#utility.yul\":1901:2019   */\n    tag_85:\n        /* \"#utility.yul\":1988:2012   */\n      tag_122\n        /* \"#utility.yul\":2006:2011   */\n      dup2\n        /* \"#utility.yul\":1988:2012   */\n      tag_84\n      jump\t// in\n    tag_122:\n        /* \"#utility.yul\":1983:1986   */\n      dup3\n        /* \"#utility.yul\":1976:2013   */\n      mstore\n        /* \"#utility.yul\":1901:2019   */\n      pop\n      pop\n      jump\t// out\n        /* \"#utility.yul\":2025:2247   */\n    tag_33:\n        /* \"#utility.yul\":2118:2122   */\n      0x00\n        /* \"#utility.yul\":2156:2158   */\n      0x20\n        /* \"#utility.yul\":2145:2154   */\n      dup3\n        /* \"#utility.yul\":2141:2159   */\n      add\n        /* \"#utility.yul\":2133:2159   */\n      swap1\n      pop\n        /* \"#utility.yul\":2169:2240   */\n      tag_124\n        /* \"#utility.yul\":2237:2238   */\n      0x00\n        /* \"#utility.yul\":2226:2235   */\n      dup4\n        /* \"#utility.yul\":2222:2239   */\n      add\n        /* \"#utility.yul\":2213:2219   */\n      dup5\n        /* \"#utility.yul\":2169:2240   */\n      tag_85\n      jump\t// in\n    tag_124:\n        /* \"#utility.yul\":2025:2247   */\n      swap3\n      swap2\n      pop\n      pop\n      jump\t// out\n        /* \"#utility.yul\":2253:2375   */\n    tag_86:\n        /* \"#utility.yul\":2326:2350   */\n      tag_126\n        /* \"#utility.yul\":2344:2349   */\n      dup2\n        /* \"#utility.yul\":2326:2350   */\n      tag_84\n      jump\t// in\n    tag_126:\n        /* \"#utility.yul\":2319:2324   */\n      dup2\n        /* \"#utility.yul\":2316:2351   */\n      eq\n        /* \"#utility.yul\":2306:2369   */\n      tag_127\n      jumpi\n        /* \"#utility.yul\":2365:2366   */\n      0x00\n        /* \"#utility.yul\":2362:2363   */\n      dup1\n        /* \"#utility.yul\":2355:2367   */\n      revert\n        /* \"#utility.yul\":2306:2369   */\n    tag_127:\n        /* \"#utility.yul\":2253:2375   */\n      pop\n      jump\t// out\n        /* \"#utility.yul\":2381:2520   */\n    tag_87:\n        /* \"#utility.yul\":2427:2432   */\n      0x00\n        /* \"#utility.yul\":2465:2471   */\n      dup2\n        /* \"#utility.yul\":2452:2472   */\n      calldataload\n        /* \"#utility.yul\":2443:2472   */\n      swap1\n      pop\n        /* \"#utility.yul\":2481:2514   */\n      tag_129\n        /* \"#utility.yul\":2508:2513   */\n      dup2\n        /* \"#utility.yul\":2481:2514   */\n      tag_86\n      jump\t// in\n    tag_129:\n        /* \"#utility.yul\":2381:2520   */\n      swap3\n      swap2\n      pop\n      pop\n      jump\t// out\n        /* \"#utility.yul\":2526:2855   */\n    tag_37:\n        /* \"#utility.yul\":2585:2591   */\n      0x00\n        /* \"#utility.yul\":2634:2636   */\n      0x20\n        /* \"#utility.yul\":2622:2631   */\n      dup3\n        /* \"#utility.yul\":2613:2620   */\n      dup5\n        /* \"#utility.yul\":2609:2632   */\n      sub\n        /* \"#utility.yul\":2605:2637   */\n      slt\n        /* \"#utility.yul\":2602:2721   */\n      iszero\n      tag_131\n      jumpi\n        /* \"#utility.yul\":2640:2719   */\n      tag_132\n      tag_79\n      jump\t// in\n    tag_132:\n        /* \"#utility.yul\":2602:2721   */\n    tag_131:\n        /* \"#utility.yul\":2760:2761   */\n      0x00\n        /* \"#utility.yul\":2785:2838   */\n      tag_133\n        /* \"#utility.yul\":2830:2837   */\n      dup5\n        /* \"#utility.yul\":2821:2827   */\n      dup3\n        /* \"#utility.yul\":2810:2819   */\n      dup6\n        /* \"#utility.yul\":2806:2828   */\n      add\n        /* \"#utility.yul\":2785:2838   */\n      tag_87\n      jump\t// in\n    tag_133:\n        /* \"#utility.yul\":2775:2838   */\n      swap2\n      pop\n        /* \"#utility.yul\":2731:2848   */\n      pop\n        /* \"#utility.yul\":2526:2855   */\n      swap3\n      swap2\n      pop\n      pop\n      jump\t// out\n        /* \"#utility.yul\":2861:2951   */\n    tag_88:\n        /* \"#utility.yul\":2895:2902   */\n      0x00\n        /* \"#utility.yul\":2938:2943   */\n      dup2\n        /* \"#utility.yul\":2931:2944   */\n      iszero\n        /* \"#utility.yul\":2924:2945   */\n      iszero\n        /* \"#utility.yul\":2913:2945   */\n      swap1\n      pop\n        /* \"#utility.yul\":2861:2951   */\n      swap2\n      swap1\n      pop\n      jump\t// out\n        /* \"#utility.yul\":2957:3066   */\n    tag_89:\n        /* \"#utility.yul\":3038:3059   */\n      tag_136\n        /* \"#utility.yul\":3053:3058   */\n      dup2\n        /* \"#utility.yul\":3038:3059   */\n      tag_88\n      jump\t// in\n    tag_136:\n        /* \"#utility.yul\":3033:3036   */\n      dup3\n        /* \"#utility.yul\":3026:3060   */\n      mstore\n        /* \"#utility.yul\":2957:3066   */\n      pop\n      pop\n      jump\t// out\n        /* \"#utility.yul\":3072:3724   */\n    tag_40:\n        /* \"#utility.yul\":3271:3275   */\n      0x00\n        /* \"#utility.yul\":3309:3312   */\n      0xa0\n        /* \"#utility.yul\":3298:3307   */\n      dup3\n        /* \"#utility.yul\":3294:3313   */\n      add\n        /* \"#utility.yul\":3286:3313   */\n      swap1\n      pop\n        /* \"#utility.yul\":3323:3394   */\n      tag_138\n        /* \"#utility.yul\":3391:3392   */\n      0x00\n        /* \"#utility.yul\":3380:3389   */\n      dup4\n        /* \"#utility.yul\":3376:3393   */\n      add\n        /* \"#utility.yul\":3367:3373   */\n      dup9\n        /* \"#utility.yul\":3323:3394   */\n      tag_77\n      jump\t// in\n    tag_138:\n        /* \"#utility.yul\":3404:3476   */\n      tag_139\n        /* \"#utility.yul\":3472:3474   */\n      0x20\n        /* \"#utility.yul\":3461:3470   */\n      dup4\n        /* \"#utility.yul\":3457:3475   */\n      add\n        /* \"#utility.yul\":3448:3454   */\n      dup8\n        /* \"#utility.yul\":3404:3476   */\n      tag_77\n      jump\t// in\n    tag_139:\n        /* \"#utility.yul\":3486:3558   */\n      tag_140\n        /* \"#utility.yul\":3554:3556   */\n      0x40\n        /* \"#utility.yul\":3543:3552   */\n      dup4\n        /* \"#utility.yul\":3539:3557   */\n      add\n        /* \"#utility.yul\":3530:3536   */\n      dup7\n        /* \"#utility.yul\":3486:3558   */\n      tag_77\n      jump\t// in\n    tag_140:\n        /* \"#utility.yul\":3568:3640   */\n      tag_141\n        /* \"#utility.yul\":3636:3638   */\n      0x60\n        /* \"#utility.yul\":3625:3634   */\n      dup4\n        /* \"#utility.yul\":3621:3639   */\n      add\n        /* \"#utility.yul\":3612:3618   */\n      dup6\n        /* \"#utility.yul\":3568:3640   */\n      tag_77\n      jump\t// in\n    tag_141:\n        /* \"#utility.yul\":3650:3717   */\n      tag_142\n        /* \"#utility.yul\":3712:3715   */\n      0x80\n        /* \"#utility.yul\":3701:3710   */\n      dup4\n        /* \"#utility.yul\":3697:3716   */\n      add\n        /* \"#utility.yul\":3688:3694   */\n      dup5\n        /* \"#utility.yul\":3650:3717   */\n      tag_89\n      jump\t// in\n    tag_142:\n        /* \"#utility.yul\":3072:3724   */\n      swap7\n      swap6\n      pop\n      pop\n      pop\n      pop\n      pop\n      pop\n      jump\t// out\n        /* \"#utility.yul\":3730:4283   */\n    tag_46:\n        /* \"#utility.yul\":3907:3911   */\n      0x00\n        /* \"#utility.yul\":3945:3948   */\n      0x80\n        /* \"#utility.yul\":3934:3943   */\n      dup3\n        /* \"#utility.yul\":3930:3949   */\n      add\n        /* \"#utility.yul\":3922:3949   */\n      swap1\n      pop\n        /* \"#utility.yul\":3959:4030   */\n      tag_144\n        /* \"#utility.yul\":4027:4028   */\n      0x00\n        /* \"#utility.yul\":4016:4025   */\n      dup4\n        /* \"#utility.yul\":4012:4029   */\n      add\n        /* \"#utility.yul\":4003:4009   */\n      dup8\n        /* \"#utility.yul\":3959:4030   */\n      tag_77\n      jump\t// in\n    tag_144:\n        /* \"#utility.yul\":4040:4112   */\n      tag_145\n        /* \"#utility.yul\":4108:4110   */\n      0x20\n        /* \"#utility.yul\":4097:4106   */\n      dup4\n        /* \"#utility.yul\":4093:4111   */\n      add\n        /* \"#utility.yul\":4084:4090   */\n      dup7\n        /* \"#utility.yul\":4040:4112   */\n      tag_77\n      jump\t// in\n    tag_145:\n        /* \"#utility.yul\":4122:4194   */\n      tag_146\n        /* \"#utility.yul\":4190:4192   */\n      0x40\n        /* \"#utility.yul\":4179:4188   */\n      dup4\n        /* \"#utility.yul\":4175:4193   */\n      add\n        /* \"#utility.yul\":4166:4172   */\n      dup6\n        /* \"#utility.yul\":4122:4194   */\n      tag_77\n      jump\t// in\n    tag_146:\n        /* \"#utility.yul\":4204:4276   */\n      tag_147\n        /* \"#utility.yul\":4272:4274   */\n      0x60\n        /* \"#utility.yul\":4261:4270   */\n      dup4\n        /* \"#utility.yul\":4257:4275   */\n      add\n        /* \"#utility.yul\":4248:4254   */\n      dup5\n        /* \"#utility.yul\":4204:4276   */\n      tag_77\n      jump\t// in\n    tag_147:\n        /* \"#utility.yul\":3730:4283   */\n      swap6\n      swap5\n      pop\n      pop\n      pop\n      pop\n      pop\n      jump\t// out\n        /* \"#utility.yul\":4289:4458   */\n    tag_90:\n        /* \"#utility.yul\":4373:4384   */\n      0x00\n        /* \"#utility.yul\":4407:4413   */\n      dup3\n        /* \"#utility.yul\":4402:4405   */\n      dup3\n        /* \"#utility.yul\":4395:4414   */\n      mstore\n        /* \"#utility.yul\":4447:4451   */\n      0x20\n        /* \"#utility.yul\":4442:4445   */\n      dup3\n        /* \"#utility.yul\":4438:4452   */\n      add\n        /* \"#utility.yul\":4423:4452   */\n      swap1\n      pop\n        /* \"#utility.yul\":4289:4458   */\n      swap3\n      swap2\n      pop\n      pop\n      jump\t// out\n        /* \"#utility.yul\":4464:4633   */\n    tag_91:\n        /* \"#utility.yul\":4604:4625   */\n      0x55736572206e6f74207265676973746572656400000000000000000000000000\n        /* \"#utility.yul\":4600:4601   */\n      0x00\n        /* \"#utility.yul\":4592:4598   */\n      dup3\n        /* \"#utility.yul\":4588:4602   */\n      add\n        /* \"#utility.yul\":4581:4626   */\n      mstore\n        /* \"#utility.yul\":4464:4633   */\n      pop\n      jump\t// out\n        /* \"#utility.yul\":4639:5005   */\n    tag_92:\n        /* \"#utility.yul\":4781:4784   */\n      0x00\n        /* \"#utility.yul\":4802:4869   */\n      tag_151\n        /* \"#utility.yul\":4866:4868   */\n      0x13\n        /* \"#utility.yul\":4861:4864   */\n      dup4\n        /* \"#utility.yul\":4802:4869   */\n      tag_90\n      jump\t// in\n    tag_151:\n        /* \"#utility.yul\":4795:4869   */\n      swap2\n      pop\n        /* \"#utility.yul\":4878:4971   */\n      tag_152\n        /* \"#utility.yul\":4967:4970   */\n      dup3\n        /* \"#utility.yul\":4878:4971   */\n      tag_91\n      jump\t// in\n    tag_152:\n        /* \"#utility.yul\":4996:4998   */\n      0x20\n        /* \"#utility.yul\":4991:4994   */\n      dup3\n        /* \"#utility.yul\":4987:4999   */\n      add\n        /* \"#utility.yul\":4980:4999   */\n      swap1\n      pop\n        /* \"#utility.yul\":4639:5005   */\n      swap2\n      swap1\n      pop\n      jump\t// out\n        /* \"#utility.yul\":5011:5430   */\n    tag_50:\n        /* \"#utility.yul\":5177:5181   */\n      0x00\n        /* \"#utility.yul\":5215:5217   */\n      0x20\n        /* \"#utility.yul\":5204:5213   */\n      dup3\n        /* \"#utility.yul\":5200:5218   */\n      add\n        /* \"#utility.yul\":5192:5218   */\n      swap1\n      pop\n        /* \"#utility.yul\":5264:5273   */\n      dup2\n        /* \"#utility.yul\":5258:5262   */\n      dup2\n        /* \"#utility.yul\":5254:5274   */\n      sub\n        /* \"#utility.yul\":5250:5251   */\n      0x00\n        /* \"#utility.yul\":5239:5248   */\n      dup4\n        /* \"#utility.yul\":5235:5252   */\n      add\n        /* \"#utility.yul\":5228:5275   */\n      mstore\n        /* \"#utility.yul\":5292:5423   */\n      tag_154\n        /* \"#utility.yul\":5418:5422   */\n      dup2\n        /* \"#utility.yul\":5292:5423   */\n      tag_92\n      jump\t// in\n    tag_154:\n        /* \"#utility.yul\":5284:5423   */\n      swap1\n      pop\n        /* \"#utility.yul\":5011:5430   */\n      swap2\n      swap1\n      pop\n      jump\t// out\n        /* \"#utility.yul\":5436:5605   */\n    tag_93:\n        /* \"#utility.yul\":5576:5597   */\n      0x4e6f207265776172647320746f20636c61696d00000000000000000000000000\n        /* \"#utility.yul\":5572:5573   */\n      0x00\n        /* \"#utility.yul\":5564:5570   */\n      dup3\n        /* \"#utility.yul\":5560:5574   */\n      add\n        /* \"#utility.yul\":5553:5598   */\n      mstore\n        /* \"#utility.yul\":5436:5605   */\n      pop\n      jump\t// out\n        /* \"#utility.yul\":5611:5977   */\n    tag_94:\n        /* \"#utility.yul\":5753:5756   */\n      0x00\n        /* \"#utility.yul\":5774:5841   */\n      tag_157\n        /* \"#utility.yul\":5838:5840   */\n      0x13\n        /* \"#utility.yul\":5833:5836   */\n      dup4\n        /* \"#utility.yul\":5774:5841   */\n      tag_90\n      jump\t// in\n    tag_157:\n        /* \"#utility.yul\":5767:5841   */\n      swap2\n      pop\n        /* \"#utility.yul\":5850:5943   */\n      tag_158\n        /* \"#utility.yul\":5939:5942   */\n      dup3\n        /* \"#utility.yul\":5850:5943   */\n      tag_93\n      jump\t// in\n    tag_158:\n        /* \"#utility.yul\":5968:5970   */\n      0x20\n        /* \"#utility.yul\":5963:5966   */\n      dup3\n        /* \"#utility.yul\":5959:5971   */\n      add\n        /* \"#utility.yul\":5952:5971   */\n      swap1\n      pop\n        /* \"#utility.yul\":5611:5977   */\n      swap2\n      swap1\n      pop\n      jump\t// out\n        /* \"#utility.yul\":5983:6402   */\n    tag_54:\n        /* \"#utility.yul\":6149:6153   */\n      0x00\n        /* \"#utility.yul\":6187:6189   */\n      0x20\n        /* \"#utility.yul\":6176:6185   */\n      dup3\n        /* \"#utility.yul\":6172:6190   */\n      add\n        /* \"#utility.yul\":6164:6190   */\n      swap1\n      pop\n        /* \"#utility.yul\":6236:6245   */\n      dup2\n        /* \"#utility.yul\":6230:6234   */\n      dup2\n        /* \"#utility.yul\":6226:6246   */\n      sub\n        /* \"#utility.yul\":6222:6223   */\n      0x00\n        /* \"#utility.yul\":6211:6220   */\n      dup4\n        /* \"#utility.yul\":6207:6224   */\n      add\n        /* \"#utility.yul\":6200:6247   */\n      mstore\n        /* \"#utility.yul\":6264:6395   */\n      tag_160\n        /* \"#utility.yul\":6390:6394   */\n      dup2\n        /* \"#utility.yul\":6264:6395   */\n      tag_94\n      jump\t// in\n    tag_160:\n        /* \"#utility.yul\":6256:6395   */\n      swap1\n      pop\n        /* \"#utility.yul\":5983:6402   */\n      swap2\n      swap1\n      pop\n      jump\t// out\n        /* \"#utility.yul\":6408:6588   */\n    tag_95:\n        /* \"#utility.yul\":6456:6533   */\n      0x4e487b7100000000000000000000000000000000000000000000000000000000\n        /* \"#utility.yul\":6453:6454   */\n      0x00\n        /* \"#utility.yul\":6446:6534   */\n      mstore\n        /* \"#utility.yul\":6553:6557   */\n      0x11\n        /* \"#utility.yul\":6550:6551   */\n      0x04\n        /* \"#utility.yul\":6543:6558   */\n      mstore\n        /* \"#utility.yul\":6577:6581   */\n      0x24\n        /* \"#utility.yul\":6574:6575   */\n      0x00\n        /* \"#utility.yul\":6567:6582   */\n      revert\n        /* \"#utility.yul\":6594:6785   */\n    tag_63:\n        /* \"#utility.yul\":6634:6637   */\n      0x00\n        /* \"#utility.yul\":6653:6673   */\n      tag_163\n        /* \"#utility.yul\":6671:6672   */\n      dup3\n        /* \"#utility.yul\":6653:6673   */\n      tag_76\n      jump\t// in\n    tag_163:\n        /* \"#utility.yul\":6648:6673   */\n      swap2\n      pop\n        /* \"#utility.yul\":6687:6707   */\n      tag_164\n        /* \"#utility.yul\":6705:6706   */\n      dup4\n        /* \"#utility.yul\":6687:6707   */\n      tag_76\n      jump\t// in\n    tag_164:\n        /* \"#utility.yul\":6682:6707   */\n      swap3\n      pop\n        /* \"#utility.yul\":6730:6731   */\n      dup3\n        /* \"#utility.yul\":6727:6728   */\n      dup3\n        /* \"#utility.yul\":6723:6732   */\n      add\n        /* \"#utility.yul\":6716:6732   */\n      swap1\n      pop\n        /* \"#utility.yul\":6751:6754   */\n      dup1\n        /* \"#utility.yul\":6748:6749   */\n      dup3\n        /* \"#utility.yul\":6745:6755   */\n      gt\n        /* \"#utility.yul\":6742:6778   */\n      iszero\n      tag_165\n      jumpi\n        /* \"#utility.yul\":6758:6776   */\n      tag_166\n      tag_95\n      jump\t// in\n    tag_166:\n        /* \"#utility.yul\":6742:6778   */\n    tag_165:\n        /* \"#utility.yul\":6594:6785   */\n      swap3\n      swap2\n      pop\n      pop\n      jump\t// out\n        /* \"#utility.yul\":6791:7201   */\n    tag_65:\n        /* \"#utility.yul\":6831:6838   */\n      0x00\n        /* \"#utility.yul\":6854:6874   */\n      tag_168\n        /* \"#utility.yul\":6872:6873   */\n      dup3\n        /* \"#utility.yul\":6854:6874   */\n      tag_76\n      jump\t// in\n    tag_168:\n        /* \"#utility.yul\":6849:6874   */\n      swap2\n      pop\n        /* \"#utility.yul\":6888:6908   */\n      tag_169\n        /* \"#utility.yul\":6906:6907   */\n      dup4\n        /* \"#utility.yul\":6888:6908   */\n      tag_76\n      jump\t// in\n    tag_169:\n        /* \"#utility.yul\":6883:6908   */\n      swap3\n      pop\n        /* \"#utility.yul\":6943:6944   */\n      dup3\n        /* \"#utility.yul\":6940:6941   */\n      dup3\n        /* \"#utility.yul\":6936:6945   */\n      mul\n        /* \"#utility.yul\":6965:6995   */\n      tag_170\n        /* \"#utility.yul\":6983:6994   */\n      dup2\n        /* \"#utility.yul\":6965:6995   */\n      tag_76\n      jump\t// in\n    tag_170:\n        /* \"#utility.yul\":6954:6995   */\n      swap2\n      pop\n        /* \"#utility.yul\":7144:7145   */\n      dup3\n        /* \"#utility.yul\":7135:7142   */\n      dup3\n        /* \"#utility.yul\":7131:7146   */\n      div\n        /* \"#utility.yul\":7128:7129   */\n      dup5\n        /* \"#utility.yul\":7125:7147   */\n      eq\n        /* \"#utility.yul\":7105:7106   */\n      dup4\n        /* \"#utility.yul\":7098:7107   */\n      iszero\n        /* \"#utility.yul\":7078:7161   */\n      or\n        /* \"#utility.yul\":7055:7194   */\n      tag_171\n      jumpi\n        /* \"#utility.yul\":7174:7192   */\n      tag_172\n      tag_95\n      jump\t// in\n    tag_172:\n        /* \"#utility.yul\":7055:7194   */\n    tag_171:\n        /* \"#utility.yul\":6839:7201   */\n      pop\n        /* \"#utility.yul\":6791:7201   */\n      swap3\n      swap2\n      pop\n      pop\n      jump\t// out\n        /* \"#utility.yul\":7207:7649   */\n    tag_68:\n        /* \"#utility.yul\":7356:7360   */\n      0x00\n        /* \"#utility.yul\":7394:7396   */\n      0x60\n        /* \"#utility.yul\":7383:7392   */\n      dup3\n        /* \"#utility.yul\":7379:7397   */\n      add\n        /* \"#utility.yul\":7371:7397   */\n      swap1\n      pop\n        /* \"#utility.yul\":7407:7478   */\n      tag_174\n        /* \"#utility.yul\":7475:7476   */\n      0x00\n        /* \"#utility.yul\":7464:7473   */\n      dup4\n        /* \"#utility.yul\":7460:7477   */\n      add\n        /* \"#utility.yul\":7451:7457   */\n      dup7\n        /* \"#utility.yul\":7407:7478   */\n      tag_77\n      jump\t// in\n    tag_174:\n        /* \"#utility.yul\":7488:7560   */\n      tag_175\n        /* \"#utility.yul\":7556:7558   */\n      0x20\n        /* \"#utility.yul\":7545:7554   */\n      dup4\n        /* \"#utility.yul\":7541:7559   */\n      add\n        /* \"#utility.yul\":7532:7538   */\n      dup6\n        /* \"#utility.yul\":7488:7560   */\n      tag_77\n      jump\t// in\n    tag_175:\n        /* \"#utility.yul\":7570:7642   */\n      tag_176\n        /* \"#utility.yul\":7638:7640   */\n      0x40\n        /* \"#utility.yul\":7627:7636   */\n      dup4\n        /* \"#utility.yul\":7623:7641   */\n      add\n        /* \"#utility.yul\":7614:7620   */\n      dup5\n        /* \"#utility.yul\":7570:7642   */\n      tag_77\n      jump\t// in\n    tag_176:\n        /* \"#utility.yul\":7207:7649   */\n      swap5\n      swap4\n      pop\n      pop\n      pop\n      pop\n      jump\t// out\n        /* \"#utility.yul\":7655:7828   */\n    tag_96:\n        /* \"#utility.yul\":7795:7820   */\n      0x5573657220616c72656164792072656769737465726564000000000000000000\n        /* \"#utility.yul\":7791:7792   */\n      0x00\n        /* \"#utility.yul\":7783:7789   */\n      dup3\n        /* \"#utility.yul\":7779:7793   */\n      add\n        /* \"#utility.yul\":7772:7821   */\n      mstore\n        /* \"#utility.yul\":7655:7828   */\n      pop\n      jump\t// out\n        /* \"#utility.yul\":7834:8200   */\n    tag_97:\n        /* \"#utility.yul\":7976:7979   */\n      0x00\n        /* \"#utility.yul\":7997:8064   */\n      tag_179\n        /* \"#utility.yul\":8061:8063   */\n      0x17\n        /* \"#utility.yul\":8056:8059   */\n      dup4\n        /* \"#utility.yul\":7997:8064   */\n      tag_90\n      jump\t// in\n    tag_179:\n        /* \"#utility.yul\":7990:8064   */\n      swap2\n      pop\n        /* \"#utility.yul\":8073:8166   */\n      tag_180\n        /* \"#utility.yul\":8162:8165   */\n      dup3\n        /* \"#utility.yul\":8073:8166   */\n      tag_96\n      jump\t// in\n    tag_180:\n        /* \"#utility.yul\":8191:8193   */\n      0x20\n        /* \"#utility.yul\":8186:8189   */\n      dup3\n        /* \"#utility.yul\":8182:8194   */\n      add\n        /* \"#utility.yul\":8175:8194   */\n      swap1\n      pop\n        /* \"#utility.yul\":7834:8200   */\n      swap2\n      swap1\n      pop\n      jump\t// out\n        /* \"#utility.yul\":8206:8625   */\n    tag_72:\n        /* \"#utility.yul\":8372:8376   */\n      0x00\n        /* \"#utility.yul\":8410:8412   */\n      0x20\n        /* \"#utility.yul\":8399:8408   */\n      dup3\n        /* \"#utility.yul\":8395:8413   */\n      add\n        /* \"#utility.yul\":8387:8413   */\n      swap1\n      pop\n        /* \"#utility.yul\":8459:8468   */\n      dup2\n        /* \"#utility.yul\":8453:8457   */\n      dup2\n        /* \"#utility.yul\":8449:8469   */\n      sub\n        /* \"#utility.yul\":8445:8446   */\n      0x00\n        /* \"#utility.yul\":8434:8443   */\n      dup4\n        /* \"#utility.yul\":8430:8447   */\n      add\n        /* \"#utility.yul\":8423:8470   */\n      mstore\n        /* \"#utility.yul\":8487:8618   */\n      tag_182\n        /* \"#utility.yul\":8613:8617   */\n      dup2\n        /* \"#utility.yul\":8487:8618   */\n      tag_97\n      jump\t// in\n    tag_182:\n        /* \"#utility.yul\":8479:8618   */\n      swap1\n      pop\n        /* \"#utility.yul\":8206:8625   */\n      swap2\n      swap1\n      pop\n      jump\t// out\n\n    auxdata: 0xa2646970667358221220475cb0b4708e66f82ff9a338299ef51d2e7150328d0b597bed5fcd0e074fe1eb64736f6c634300081a0033\n}\n",
				"bytecode": {
					"linkReferences": {},
					"object": "608060405260016002553480156013575f80fd5b503360015f6101000a81548173ffffffffffffffffffffffffffffffffffffffff021916908373ffffffffffffffffffffffffffffffffffffffff160217905550610d30806100615f395ff3fe608060405260043610610073575f3560e01c80634d3820eb1161004d5780634d3820eb146100e65780638da5cb5b146100fc578063a87430ba14610126578063ffc9896b146101665761007a565b806305eddade1461007e578063372500ab146100a85780633b431af7146100be5761007a565b3661007a57005b5f80fd5b348015610089575f80fd5b506100926101a5565b60405161009f91906108ea565b60405180910390f35b3480156100b3575f80fd5b506100bc6101ab565b005b3480156100c9575f80fd5b506100e460048036038101906100df9190610931565b610394565b005b3480156100f1575f80fd5b506100fa6105b4565b005b348015610107575f80fd5b50610110610733565b60405161011d91906109c0565b60405180910390f35b348015610131575f80fd5b5061014c60048036038101906101479190610a03565b610758565b60405161015d959493929190610a48565b60405180910390f35b348015610171575f80fd5b5061018c60048036038101906101879190610a03565b610795565b60405161019c9493929190610a99565b60405180910390f35b60025481565b5f803373ffffffffffffffffffffffffffffffffffffffff1673ffffffffffffffffffffffffffffffffffffffff1681526020019081526020015f206004015f9054906101000a900460ff16610236576040517f08c379a000000000000000000000000000000000000000000000000000000000815260040161022d90610b36565b60405180910390fd5b5f805f3373ffffffffffffffffffffffffffffffffffffffff1673ffffffffffffffffffffffffffffffffffffffff1681526020019081526020015f206003015490505f81116102bb576040517f08c379a00000000000000000000000000000000000000000000000000000000081526004016102b290610b9e565b60405180910390fd5b5f805f3373ffffffffffffffffffffffffffffffffffffffff1673ffffffffffffffffffffffffffffffffffffffff1681526020019081526020015f20600301819055503373ffffffffffffffffffffffffffffffffffffffff167ffc30cddea38e2bf4d6ea7d3f9ed3b6ad7f176419f4963bd81318067a4aee73fe8260405161034591906108ea565b60405180910390a23373ffffffffffffffffffffffffffffffffffffffff166108fc8290811502906040515f60405180830381858888f19350505050158015610390573d5f803e3d5ffd5b5050565b5f803373ffffffffffffffffffffffffffffffffffffffff1673ffffffffffffffffffffffffffffffffffffffff1681526020019081526020015f206004015f9054906101000a900460ff1661041f576040517f08c379a000000000000000000000000000000000000000000000000000000000815260040161041690610b36565b60405180910390fd5b825f803373ffffffffffffffffffffffffffffffffffffffff1673ffffffffffffffffffffffffffffffffffffffff1681526020019081526020015f205f015f82825461046c9190610be9565b92505081905550815f803373ffffffffffffffffffffffffffffffffffffffff1673ffffffffffffffffffffffffffffffffffffffff1681526020019081526020015f2060010181905550805f803373ffffffffffffffffffffffffffffffffffffffff1673ffffffffffffffffffffffffffffffffffffffff1681526020019081526020015f2060020181905550600254836105099190610c1c565b5f803373ffffffffffffffffffffffffffffffffffffffff1673ffffffffffffffffffffffffffffffffffffffff1681526020019081526020015f206003015f8282546105569190610be9565b925050819055503373ffffffffffffffffffffffffffffffffffffffff167f122ea631e39d40302dd521cd06fc54947c0304ae484a834aa0ca92fe85a437fb8484846040516105a793929190610c5d565b60405180910390a2505050565b5f803373ffffffffffffffffffffffffffffffffffffffff1673ffffffffffffffffffffffffffffffffffffffff1681526020019081526020015f206004015f9054906101000a900460ff1615610640576040517f08c379a000000000000000000000000000000000000000000000000000000000815260040161063790610cdc565b60405180910390fd5b6040518060a001604052805f81526020015f81526020015f81526020015f8152602001600115158152505f803373ffffffffffffffffffffffffffffffffffffffff1673ffffffffffffffffffffffffffffffffffffffff1681526020019081526020015f205f820151815f01556020820151816001015560408201518160020155606082015181600301556080820151816004015f6101000a81548160ff0219169083151502179055509050503373ffffffffffffffffffffffffffffffffffffffff167f54db7a5cb4735e1aac1f53db512d3390390bb6637bd30ad4bf9fc98667d9b9b960405160405180910390a2565b60015f9054906101000a900473ffffffffffffffffffffffffffffffffffffffff1681565b5f602052805f5260405f205f91509050805f015490806001015490806002015490806003015490806004015f9054906101000a900460ff16905085565b5f805f805f808673ffffffffffffffffffffffffffffffffffffffff1673ffffffffffffffffffffffffffffffffffffffff1681526020019081526020015f206004015f9054906101000a900460ff16610824576040517f08c379a000000000000000000000000000000000000000000000000000000000815260040161081b90610b36565b60405180910390fd5b5f805f8773ffffffffffffffffffffffffffffffffffffffff1673ffffffffffffffffffffffffffffffffffffffff1681526020019081526020015f206040518060a00160405290815f8201548152602001600182015481526020016002820154815260200160038201548152602001600482015f9054906101000a900460ff1615151515815250509050805f01518160200151826040015183606001519450945094509450509193509193565b5f819050919050565b6108e4816108d2565b82525050565b5f6020820190506108fd5f8301846108db565b92915050565b5f80fd5b610910816108d2565b811461091a575f80fd5b50565b5f8135905061092b81610907565b92915050565b5f805f6060848603121561094857610947610903565b5b5f6109558682870161091d565b93505060206109668682870161091d565b92505060406109778682870161091d565b9150509250925092565b5f73ffffffffffffffffffffffffffffffffffffffff82169050919050565b5f6109aa82610981565b9050919050565b6109ba816109a0565b82525050565b5f6020820190506109d35f8301846109b1565b92915050565b6109e2816109a0565b81146109ec575f80fd5b50565b5f813590506109fd816109d9565b92915050565b5f60208284031215610a1857610a17610903565b5b5f610a25848285016109ef565b91505092915050565b5f8115159050919050565b610a4281610a2e565b82525050565b5f60a082019050610a5b5f8301886108db565b610a6860208301876108db565b610a7560408301866108db565b610a8260608301856108db565b610a8f6080830184610a39565b9695505050505050565b5f608082019050610aac5f8301876108db565b610ab960208301866108db565b610ac660408301856108db565b610ad360608301846108db565b95945050505050565b5f82825260208201905092915050565b7f55736572206e6f742072656769737465726564000000000000000000000000005f82015250565b5f610b20601383610adc565b9150610b2b82610aec565b602082019050919050565b5f6020820190508181035f830152610b4d81610b14565b9050919050565b7f4e6f207265776172647320746f20636c61696d000000000000000000000000005f82015250565b5f610b88601383610adc565b9150610b9382610b54565b602082019050919050565b5f6020820190508181035f830152610bb581610b7c565b9050919050565b7f4e487b71000000000000000000000000000000000000000000000000000000005f52601160045260245ffd5b5f610bf3826108d2565b9150610bfe836108d2565b9250828201905080821115610c1657610c15610bbc565b5b92915050565b5f610c26826108d2565b9150610c31836108d2565b9250828202610c3f816108d2565b91508282048414831517610c5657610c55610bbc565b5b5092915050565b5f606082019050610c705f8301866108db565b610c7d60208301856108db565b610c8a60408301846108db565b949350505050565b7f5573657220616c726561647920726567697374657265640000000000000000005f82015250565b5f610cc6601783610adc565b9150610cd182610c92565b602082019050919050565b5f6020820190508181035f830152610cf381610cba565b905091905056fea2646970667358221220475cb0b4708e66f82ff9a338299ef51d2e7150328d0b597bed5fcd0e074fe1eb64736f6c634300081a0033",
					"opcodes": "PUSH1 0x80 PUSH1 0x40 MSTORE PUSH1 0x1 PUSH1 0x2 SSTORE CALLVALUE DUP1 ISZERO PUSH1 0x13 JUMPI PUSH0 DUP1 REVERT JUMPDEST POP CALLER PUSH1 0x1 PUSH0 PUSH2 0x100 EXP DUP2 SLOAD DUP2 PUSH20 0xFFFFFFFFFFFFFFFFFFFFFFFFFFFFFFFFFFFFFFFF MUL NOT AND SWAP1 DUP4 PUSH20 0xFFFFFFFFFFFFFFFFFFFFFFFFFFFFFFFFFFFFFFFF AND MUL OR SWAP1 SSTORE POP PUSH2 0xD30 DUP1 PUSH2 0x61 PUSH0 CODECOPY PUSH0 RETURN INVALID PUSH1 0x80 PUSH1 0x40 MSTORE PUSH1 0x4 CALLDATASIZE LT PUSH2 0x73 JUMPI PUSH0 CALLDATALOAD PUSH1 0xE0 SHR DUP1 PUSH4 0x4D3820EB GT PUSH2 0x4D JUMPI DUP1 PUSH4 0x4D3820EB EQ PUSH2 0xE6 JUMPI DUP1 PUSH4 0x8DA5CB5B EQ PUSH2 0xFC JUMPI DUP1 PUSH4 0xA87430BA EQ PUSH2 0x126 JUMPI DUP1 PUSH4 0xFFC9896B EQ PUSH2 0x166 JUMPI PUSH2 0x7A JUMP JUMPDEST DUP1 PUSH4 0x5EDDADE EQ PUSH2 0x7E JUMPI DUP1 PUSH4 0x372500AB EQ PUSH2 0xA8 JUMPI DUP1 PUSH4 0x3B431AF7 EQ PUSH2 0xBE JUMPI PUSH2 0x7A JUMP JUMPDEST CALLDATASIZE PUSH2 0x7A JUMPI STOP JUMPDEST PUSH0 DUP1 REVERT JUMPDEST CALLVALUE DUP1 ISZERO PUSH2 0x89 JUMPI PUSH0 DUP1 REVERT JUMPDEST POP PUSH2 0x92 PUSH2 0x1A5 JUMP JUMPDEST PUSH1 0x40 MLOAD PUSH2 0x9F SWAP2 SWAP1 PUSH2 0x8EA JUMP JUMPDEST PUSH1 0x40 MLOAD DUP1 SWAP2 SUB SWAP1 RETURN JUMPDEST CALLVALUE DUP1 ISZERO PUSH2 0xB3 JUMPI PUSH0 DUP1 REVERT JUMPDEST POP PUSH2 0xBC PUSH2 0x1AB JUMP JUMPDEST STOP JUMPDEST CALLVALUE DUP1 ISZERO PUSH2 0xC9 JUMPI PUSH0 DUP1 REVERT JUMPDEST POP PUSH2 0xE4 PUSH1 0x4 DUP1 CALLDATASIZE SUB DUP2 ADD SWAP1 PUSH2 0xDF SWAP2 SWAP1 PUSH2 0x931 JUMP JUMPDEST PUSH2 0x394 JUMP JUMPDEST STOP JUMPDEST CALLVALUE DUP1 ISZERO PUSH2 0xF1 JUMPI PUSH0 DUP1 REVERT JUMPDEST POP PUSH2 0xFA PUSH2 0x5B4 JUMP JUMPDEST STOP JUMPDEST CALLVALUE DUP1 ISZERO PUSH2 0x107 JUMPI PUSH0 DUP1 REVERT JUMPDEST POP PUSH2 0x110 PUSH2 0x733 JUMP JUMPDEST PUSH1 0x40 MLOAD PUSH2 0x11D SWAP2 SWAP1 PUSH2 0x9C0 JUMP JUMPDEST PUSH1 0x40 MLOAD DUP1 SWAP2 SUB SWAP1 RETURN JUMPDEST CALLVALUE DUP1 ISZERO PUSH2 0x131 JUMPI PUSH0 DUP1 REVERT JUMPDEST POP PUSH2 0x14C PUSH1 0x4 DUP1 CALLDATASIZE SUB DUP2 ADD SWAP1 PUSH2 0x147 SWAP2 SWAP1 PUSH2 0xA03 JUMP JUMPDEST PUSH2 0x758 JUMP JUMPDEST PUSH1 0x40 MLOAD PUSH2 0x15D SWAP6 SWAP5 SWAP4 SWAP3 SWAP2 SWAP1 PUSH2 0xA48 JUMP JUMPDEST PUSH1 0x40 MLOAD DUP1 SWAP2 SUB SWAP1 RETURN JUMPDEST CALLVALUE DUP1 ISZERO PUSH2 0x171 JUMPI PUSH0 DUP1 REVERT JUMPDEST POP PUSH2 0x18C PUSH1 0x4 DUP1 CALLDATASIZE SUB DUP2 ADD SWAP1 PUSH2 0x187 SWAP2 SWAP1 PUSH2 0xA03 JUMP JUMPDEST PUSH2 0x795 JUMP JUMPDEST PUSH1 0x40 MLOAD PUSH2 0x19C SWAP5 SWAP4 SWAP3 SWAP2 SWAP1 PUSH2 0xA99 JUMP JUMPDEST PUSH1 0x40 MLOAD DUP1 SWAP2 SUB SWAP1 RETURN JUMPDEST PUSH1 0x2 SLOAD DUP2 JUMP JUMPDEST PUSH0 DUP1 CALLER PUSH20 0xFFFFFFFFFFFFFFFFFFFFFFFFFFFFFFFFFFFFFFFF AND PUSH20 0xFFFFFFFFFFFFFFFFFFFFFFFFFFFFFFFFFFFFFFFF AND DUP2 MSTORE PUSH1 0x20 ADD SWAP1 DUP2 MSTORE PUSH1 0x20 ADD PUSH0 KECCAK256 PUSH1 0x4 ADD PUSH0 SWAP1 SLOAD SWAP1 PUSH2 0x100 EXP SWAP1 DIV PUSH1 0xFF AND PUSH2 0x236 JUMPI PUSH1 0x40 MLOAD PUSH32 0x8C379A000000000000000000000000000000000000000000000000000000000 DUP2 MSTORE PUSH1 0x4 ADD PUSH2 0x22D SWAP1 PUSH2 0xB36 JUMP JUMPDEST PUSH1 0x40 MLOAD DUP1 SWAP2 SUB SWAP1 REVERT JUMPDEST PUSH0 DUP1 PUSH0 CALLER PUSH20 0xFFFFFFFFFFFFFFFFFFFFFFFFFFFFFFFFFFFFFFFF AND PUSH20 0xFFFFFFFFFFFFFFFFFFFFFFFFFFFFFFFFFFFFFFFF AND DUP2 MSTORE PUSH1 0x20 ADD SWAP1 DUP2 MSTORE PUSH1 0x20 ADD PUSH0 KECCAK256 PUSH1 0x3 ADD SLOAD SWAP1 POP PUSH0 DUP2 GT PUSH2 0x2BB JUMPI PUSH1 0x40 MLOAD PUSH32 0x8C379A000000000000000000000000000000000000000000000000000000000 DUP2 MSTORE PUSH1 0x4 ADD PUSH2 0x2B2 SWAP1 PUSH2 0xB9E JUMP JUMPDEST PUSH1 0x40 MLOAD DUP1 SWAP2 SUB SWAP1 REVERT JUMPDEST PUSH0 DUP1 PUSH0 CALLER PUSH20 0xFFFFFFFFFFFFFFFFFFFFFFFFFFFFFFFFFFFFFFFF AND PUSH20 0xFFFFFFFFFFFFFFFFFFFFFFFFFFFFFFFFFFFFFFFF AND DUP2 MSTORE PUSH1 0x20 ADD SWAP1 DUP2 MSTORE PUSH1 0x20 ADD PUSH0 KECCAK256 PUSH1 0x3 ADD DUP2 SWAP1 SSTORE POP CALLER PUSH20 0xFFFFFFFFFFFFFFFFFFFFFFFFFFFFFFFFFFFFFFFF AND PUSH32 0xFC30CDDEA38E2BF4D6EA7D3F9ED3B6AD7F176419F4963BD81318067A4AEE73FE DUP3 PUSH1 0x40 MLOAD PUSH2 0x345 SWAP2 SWAP1 PUSH2 0x8EA JUMP JUMPDEST PUSH1 0x40 MLOAD DUP1 SWAP2 SUB SWAP1 LOG2 CALLER PUSH20 0xFFFFFFFFFFFFFFFFFFFFFFFFFFFFFFFFFFFFFFFF AND PUSH2 0x8FC DUP3 SWAP1 DUP2 ISZERO MUL SWAP1 PUSH1 0x40 MLOAD PUSH0 PUSH1 0x40 MLOAD DUP1 DUP4 SUB DUP2 DUP6 DUP9 DUP9 CALL SWAP4 POP POP POP POP ISZERO DUP1 ISZERO PUSH2 0x390 JUMPI RETURNDATASIZE PUSH0 DUP1 RETURNDATACOPY RETURNDATASIZE PUSH0 REVERT JUMPDEST POP POP JUMP JUMPDEST PUSH0 DUP1 CALLER PUSH20 0xFFFFFFFFFFFFFFFFFFFFFFFFFFFFFFFFFFFFFFFF AND PUSH20 0xFFFFFFFFFFFFFFFFFFFFFFFFFFFFFFFFFFFFFFFF AND DUP2 MSTORE PUSH1 0x20 ADD SWAP1 DUP2 MSTORE PUSH1 0x20 ADD PUSH0 KECCAK256 PUSH1 0x4 ADD PUSH0 SWAP1 SLOAD SWAP1 PUSH2 0x100 EXP SWAP1 DIV PUSH1 0xFF AND PUSH2 0x41F JUMPI PUSH1 0x40 MLOAD PUSH32 0x8C379A000000000000000000000000000000000000000000000000000000000 DUP2 MSTORE PUSH1 0x4 ADD PUSH2 0x416 SWAP1 PUSH2 0xB36 JUMP JUMPDEST PUSH1 0x40 MLOAD DUP1 SWAP2 SUB SWAP1 REVERT JUMPDEST DUP3 PUSH0 DUP1 CALLER PUSH20 0xFFFFFFFFFFFFFFFFFFFFFFFFFFFFFFFFFFFFFFFF AND PUSH20 0xFFFFFFFFFFFFFFFFFFFFFFFFFFFFFFFFFFFFFFFF AND DUP2 MSTORE PUSH1 0x20 ADD SWAP1 DUP2 MSTORE PUSH1 0x20 ADD PUSH0 KECCAK256 PUSH0 ADD PUSH0 DUP3 DUP3 SLOAD PUSH2 0x46C SWAP2 SWAP1 PUSH2 0xBE9 JUMP JUMPDEST SWAP3 POP POP DUP2 SWAP1 SSTORE POP DUP2 PUSH0 DUP1 CALLER PUSH20 0xFFFFFFFFFFFFFFFFFFFFFFFFFFFFFFFFFFFFFFFF AND PUSH20 0xFFFFFFFFFFFFFFFFFFFFFFFFFFFFFFFFFFFFFFFF AND DUP2 MSTORE PUSH1 0x20 ADD SWAP1 DUP2 MSTORE PUSH1 0x20 ADD PUSH0 KECCAK256 PUSH1 0x1 ADD DUP2 SWAP1 SSTORE POP DUP1 PUSH0 DUP1 CALLER PUSH20 0xFFFFFFFFFFFFFFFFFFFFFFFFFFFFFFFFFFFFFFFF AND PUSH20 0xFFFFFFFFFFFFFFFFFFFFFFFFFFFFFFFFFFFFFFFF AND DUP2 MSTORE PUSH1 0x20 ADD SWAP1 DUP2 MSTORE PUSH1 0x20 ADD PUSH0 KECCAK256 PUSH1 0x2 ADD DUP2 SWAP1 SSTORE POP PUSH1 0x2 SLOAD DUP4 PUSH2 0x509 SWAP2 SWAP1 PUSH2 0xC1C JUMP JUMPDEST PUSH0 DUP1 CALLER PUSH20 0xFFFFFFFFFFFFFFFFFFFFFFFFFFFFFFFFFFFFFFFF AND PUSH20 0xFFFFFFFFFFFFFFFFFFFFFFFFFFFFFFFFFFFFFFFF AND DUP2 MSTORE PUSH1 0x20 ADD SWAP1 DUP2 MSTORE PUSH1 0x20 ADD PUSH0 KECCAK256 PUSH1 0x3 ADD PUSH0 DUP3 DUP3 SLOAD PUSH2 0x556 SWAP2 SWAP1 PUSH2 0xBE9 JUMP JUMPDEST SWAP3 POP POP DUP2 SWAP1 SSTORE POP CALLER PUSH20 0xFFFFFFFFFFFFFFFFFFFFFFFFFFFFFFFFFFFFFFFF AND PUSH32 0x122EA631E39D40302DD521CD06FC54947C0304AE484A834AA0CA92FE85A437FB DUP5 DUP5 DUP5 PUSH1 0x40 MLOAD PUSH2 0x5A7 SWAP4 SWAP3 SWAP2 SWAP1 PUSH2 0xC5D JUMP JUMPDEST PUSH1 0x40 MLOAD DUP1 SWAP2 SUB SWAP1 LOG2 POP POP POP JUMP JUMPDEST PUSH0 DUP1 CALLER PUSH20 0xFFFFFFFFFFFFFFFFFFFFFFFFFFFFFFFFFFFFFFFF AND PUSH20 0xFFFFFFFFFFFFFFFFFFFFFFFFFFFFFFFFFFFFFFFF AND DUP2 MSTORE PUSH1 0x20 ADD SWAP1 DUP2 MSTORE PUSH1 0x20 ADD PUSH0 KECCAK256 PUSH1 0x4 ADD PUSH0 SWAP1 SLOAD SWAP1 PUSH2 0x100 EXP SWAP1 DIV PUSH1 0xFF AND ISZERO PUSH2 0x640 JUMPI PUSH1 0x40 MLOAD PUSH32 0x8C379A000000000000000000000000000000000000000000000000000000000 DUP2 MSTORE PUSH1 0x4 ADD PUSH2 0x637 SWAP1 PUSH2 0xCDC JUMP JUMPDEST PUSH1 0x40 MLOAD DUP1 SWAP2 SUB SWAP1 REVERT JUMPDEST PUSH1 0x40 MLOAD DUP1 PUSH1 0xA0 ADD PUSH1 0x40 MSTORE DUP1 PUSH0 DUP2 MSTORE PUSH1 0x20 ADD PUSH0 DUP2 MSTORE PUSH1 0x20 ADD PUSH0 DUP2 MSTORE PUSH1 0x20 ADD PUSH0 DUP2 MSTORE PUSH1 0x20 ADD PUSH1 0x1 ISZERO ISZERO DUP2 MSTORE POP PUSH0 DUP1 CALLER PUSH20 0xFFFFFFFFFFFFFFFFFFFFFFFFFFFFFFFFFFFFFFFF AND PUSH20 0xFFFFFFFFFFFFFFFFFFFFFFFFFFFFFFFFFFFFFFFF AND DUP2 MSTORE PUSH1 0x20 ADD SWAP1 DUP2 MSTORE PUSH1 0x20 ADD PUSH0 KECCAK256 PUSH0 DUP3 ADD MLOAD DUP2 PUSH0 ADD SSTORE PUSH1 0x20 DUP3 ADD MLOAD DUP2 PUSH1 0x1 ADD SSTORE PUSH1 0x40 DUP3 ADD MLOAD DUP2 PUSH1 0x2 ADD SSTORE PUSH1 0x60 DUP3 ADD MLOAD DUP2 PUSH1 0x3 ADD SSTORE PUSH1 0x80 DUP3 ADD MLOAD DUP2 PUSH1 0x4 ADD PUSH0 PUSH2 0x100 EXP DUP2 SLOAD DUP2 PUSH1 0xFF MUL NOT AND SWAP1 DUP4 ISZERO ISZERO MUL OR SWAP1 SSTORE POP SWAP1 POP POP CALLER PUSH20 0xFFFFFFFFFFFFFFFFFFFFFFFFFFFFFFFFFFFFFFFF AND PUSH32 0x54DB7A5CB4735E1AAC1F53DB512D3390390BB6637BD30AD4BF9FC98667D9B9B9 PUSH1 0x40 MLOAD PUSH1 0x40 MLOAD DUP1 SWAP2 SUB SWAP1 LOG2 JUMP JUMPDEST PUSH1 0x1 PUSH0 SWAP1 SLOAD SWAP1 PUSH2 0x100 EXP SWAP1 DIV PUSH20 0xFFFFFFFFFFFFFFFFFFFFFFFFFFFFFFFFFFFFFFFF AND DUP2 JUMP JUMPDEST PUSH0 PUSH1 0x20 MSTORE DUP1 PUSH0 MSTORE PUSH1 0x40 PUSH0 KECCAK256 PUSH0 SWAP2 POP SWAP1 POP DUP1 PUSH0 ADD SLOAD SWAP1 DUP1 PUSH1 0x1 ADD SLOAD SWAP1 DUP1 PUSH1 0x2 ADD SLOAD SWAP1 DUP1 PUSH1 0x3 ADD SLOAD SWAP1 DUP1 PUSH1 0x4 ADD PUSH0 SWAP1 SLOAD SWAP1 PUSH2 0x100 EXP SWAP1 DIV PUSH1 0xFF AND SWAP1 POP DUP6 JUMP JUMPDEST PUSH0 DUP1 PUSH0 DUP1 PUSH0 DUP1 DUP7 PUSH20 0xFFFFFFFFFFFFFFFFFFFFFFFFFFFFFFFFFFFFFFFF AND PUSH20 0xFFFFFFFFFFFFFFFFFFFFFFFFFFFFFFFFFFFFFFFF AND DUP2 MSTORE PUSH1 0x20 ADD SWAP1 DUP2 MSTORE PUSH1 0x20 ADD PUSH0 KECCAK256 PUSH1 0x4 ADD PUSH0 SWAP1 SLOAD SWAP1 PUSH2 0x100 EXP SWAP1 DIV PUSH1 0xFF AND PUSH2 0x824 JUMPI PUSH1 0x40 MLOAD PUSH32 0x8C379A000000000000000000000000000000000000000000000000000000000 DUP2 MSTORE PUSH1 0x4 ADD PUSH2 0x81B SWAP1 PUSH2 0xB36 JUMP JUMPDEST PUSH1 0x40 MLOAD DUP1 SWAP2 SUB SWAP1 REVERT JUMPDEST PUSH0 DUP1 PUSH0 DUP8 PUSH20 0xFFFFFFFFFFFFFFFFFFFFFFFFFFFFFFFFFFFFFFFF AND PUSH20 0xFFFFFFFFFFFFFFFFFFFFFFFFFFFFFFFFFFFFFFFF AND DUP2 MSTORE PUSH1 0x20 ADD SWAP1 DUP2 MSTORE PUSH1 0x20 ADD PUSH0 KECCAK256 PUSH1 0x40 MLOAD DUP1 PUSH1 0xA0 ADD PUSH1 0x40 MSTORE SWAP1 DUP2 PUSH0 DUP3 ADD SLOAD DUP2 MSTORE PUSH1 0x20 ADD PUSH1 0x1 DUP3 ADD SLOAD DUP2 MSTORE PUSH1 0x20 ADD PUSH1 0x2 DUP3 ADD SLOAD DUP2 MSTORE PUSH1 0x20 ADD PUSH1 0x3 DUP3 ADD SLOAD DUP2 MSTORE PUSH1 0x20 ADD PUSH1 0x4 DUP3 ADD PUSH0 SWAP1 SLOAD SWAP1 PUSH2 0x100 EXP SWAP1 DIV PUSH1 0xFF AND ISZERO ISZERO ISZERO ISZERO DUP2 MSTORE POP POP SWAP1 POP DUP1 PUSH0 ADD MLOAD DUP2 PUSH1 0x20 ADD MLOAD DUP3 PUSH1 0x40 ADD MLOAD DUP4 PUSH1 0x60 ADD MLOAD SWAP5 POP SWAP5 POP SWAP5 POP SWAP5 POP POP SWAP2 SWAP4 POP SWAP2 SWAP4 JUMP JUMPDEST PUSH0 DUP2 SWAP1 POP SWAP2 SWAP1 POP JUMP JUMPDEST PUSH2 0x8E4 DUP2 PUSH2 0x8D2 JUMP JUMPDEST DUP3 MSTORE POP POP JUMP JUMPDEST PUSH0 PUSH1 0x20 DUP3 ADD SWAP1 POP PUSH2 0x8FD PUSH0 DUP4 ADD DUP5 PUSH2 0x8DB JUMP JUMPDEST SWAP3 SWAP2 POP POP JUMP JUMPDEST PUSH0 DUP1 REVERT JUMPDEST PUSH2 0x910 DUP2 PUSH2 0x8D2 JUMP JUMPDEST DUP2 EQ PUSH2 0x91A JUMPI PUSH0 DUP1 REVERT JUMPDEST POP JUMP JUMPDEST PUSH0 DUP2 CALLDATALOAD SWAP1 POP PUSH2 0x92B DUP2 PUSH2 0x907 JUMP JUMPDEST SWAP3 SWAP2 POP POP JUMP JUMPDEST PUSH0 DUP1 PUSH0 PUSH1 0x60 DUP5 DUP7 SUB SLT ISZERO PUSH2 0x948 JUMPI PUSH2 0x947 PUSH2 0x903 JUMP JUMPDEST JUMPDEST PUSH0 PUSH2 0x955 DUP7 DUP3 DUP8 ADD PUSH2 0x91D JUMP JUMPDEST SWAP4 POP POP PUSH1 0x20 PUSH2 0x966 DUP7 DUP3 DUP8 ADD PUSH2 0x91D JUMP JUMPDEST SWAP3 POP POP PUSH1 0x40 PUSH2 0x977 DUP7 DUP3 DUP8 ADD PUSH2 0x91D JUMP JUMPDEST SWAP2 POP POP SWAP3 POP SWAP3 POP SWAP3 JUMP JUMPDEST PUSH0 PUSH20 0xFFFFFFFFFFFFFFFFFFFFFFFFFFFFFFFFFFFFFFFF DUP3 AND SWAP1 POP SWAP2 SWAP1 POP JUMP JUMPDEST PUSH0 PUSH2 0x9AA DUP3 PUSH2 0x981 JUMP JUMPDEST SWAP1 POP SWAP2 SWAP1 POP JUMP JUMPDEST PUSH2 0x9BA DUP2 PUSH2 0x9A0 JUMP JUMPDEST DUP3 MSTORE POP POP JUMP JUMPDEST PUSH0 PUSH1 0x20 DUP3 ADD SWAP1 POP PUSH2 0x9D3 PUSH0 DUP4 ADD DUP5 PUSH2 0x9B1 JUMP JUMPDEST SWAP3 SWAP2 POP POP JUMP JUMPDEST PUSH2 0x9E2 DUP2 PUSH2 0x9A0 JUMP JUMPDEST DUP2 EQ PUSH2 0x9EC JUMPI PUSH0 DUP1 REVERT JUMPDEST POP JUMP JUMPDEST PUSH0 DUP2 CALLDATALOAD SWAP1 POP PUSH2 0x9FD DUP2 PUSH2 0x9D9 JUMP JUMPDEST SWAP3 SWAP2 POP POP JUMP JUMPDEST PUSH0 PUSH1 0x20 DUP3 DUP5 SUB SLT ISZERO PUSH2 0xA18 JUMPI PUSH2 0xA17 PUSH2 0x903 JUMP JUMPDEST JUMPDEST PUSH0 PUSH2 0xA25 DUP5 DUP3 DUP6 ADD PUSH2 0x9EF JUMP JUMPDEST SWAP2 POP POP SWAP3 SWAP2 POP POP JUMP JUMPDEST PUSH0 DUP2 ISZERO ISZERO SWAP1 POP SWAP2 SWAP1 POP JUMP JUMPDEST PUSH2 0xA42 DUP2 PUSH2 0xA2E JUMP JUMPDEST DUP3 MSTORE POP POP JUMP JUMPDEST PUSH0 PUSH1 0xA0 DUP3 ADD SWAP1 POP PUSH2 0xA5B PUSH0 DUP4 ADD DUP9 PUSH2 0x8DB JUMP JUMPDEST PUSH2 0xA68 PUSH1 0x20 DUP4 ADD DUP8 PUSH2 0x8DB JUMP JUMPDEST PUSH2 0xA75 PUSH1 0x40 DUP4 ADD DUP7 PUSH2 0x8DB JUMP JUMPDEST PUSH2 0xA82 PUSH1 0x60 DUP4 ADD DUP6 PUSH2 0x8DB JUMP JUMPDEST PUSH2 0xA8F PUSH1 0x80 DUP4 ADD DUP5 PUSH2 0xA39 JUMP JUMPDEST SWAP7 SWAP6 POP POP POP POP POP POP JUMP JUMPDEST PUSH0 PUSH1 0x80 DUP3 ADD SWAP1 POP PUSH2 0xAAC PUSH0 DUP4 ADD DUP8 PUSH2 0x8DB JUMP JUMPDEST PUSH2 0xAB9 PUSH1 0x20 DUP4 ADD DUP7 PUSH2 0x8DB JUMP JUMPDEST PUSH2 0xAC6 PUSH1 0x40 DUP4 ADD DUP6 PUSH2 0x8DB JUMP JUMPDEST PUSH2 0xAD3 PUSH1 0x60 DUP4 ADD DUP5 PUSH2 0x8DB JUMP JUMPDEST SWAP6 SWAP5 POP POP POP POP POP JUMP JUMPDEST PUSH0 DUP3 DUP3 MSTORE PUSH1 0x20 DUP3 ADD SWAP1 POP SWAP3 SWAP2 POP POP JUMP JUMPDEST PUSH32 0x55736572206E6F74207265676973746572656400000000000000000000000000 PUSH0 DUP3 ADD MSTORE POP JUMP JUMPDEST PUSH0 PUSH2 0xB20 PUSH1 0x13 DUP4 PUSH2 0xADC JUMP JUMPDEST SWAP2 POP PUSH2 0xB2B DUP3 PUSH2 0xAEC JUMP JUMPDEST PUSH1 0x20 DUP3 ADD SWAP1 POP SWAP2 SWAP1 POP JUMP JUMPDEST PUSH0 PUSH1 0x20 DUP3 ADD SWAP1 POP DUP2 DUP2 SUB PUSH0 DUP4 ADD MSTORE PUSH2 0xB4D DUP2 PUSH2 0xB14 JUMP JUMPDEST SWAP1 POP SWAP2 SWAP1 POP JUMP JUMPDEST PUSH32 0x4E6F207265776172647320746F20636C61696D00000000000000000000000000 PUSH0 DUP3 ADD MSTORE POP JUMP JUMPDEST PUSH0 PUSH2 0xB88 PUSH1 0x13 DUP4 PUSH2 0xADC JUMP JUMPDEST SWAP2 POP PUSH2 0xB93 DUP3 PUSH2 0xB54 JUMP JUMPDEST PUSH1 0x20 DUP3 ADD SWAP1 POP SWAP2 SWAP1 POP JUMP JUMPDEST PUSH0 PUSH1 0x20 DUP3 ADD SWAP1 POP DUP2 DUP2 SUB PUSH0 DUP4 ADD MSTORE PUSH2 0xBB5 DUP2 PUSH2 0xB7C JUMP JUMPDEST SWAP1 POP SWAP2 SWAP1 POP JUMP JUMPDEST PUSH32 0x4E487B7100000000000000000000000000000000000000000000000000000000 PUSH0 MSTORE PUSH1 0x11 PUSH1 0x4 MSTORE PUSH1 0x24 PUSH0 REVERT JUMPDEST PUSH0 PUSH2 0xBF3 DUP3 PUSH2 0x8D2 JUMP JUMPDEST SWAP2 POP PUSH2 0xBFE DUP4 PUSH2 0x8D2 JUMP JUMPDEST SWAP3 POP DUP3 DUP3 ADD SWAP1 POP DUP1 DUP3 GT ISZERO PUSH2 0xC16 JUMPI PUSH2 0xC15 PUSH2 0xBBC JUMP JUMPDEST JUMPDEST SWAP3 SWAP2 POP POP JUMP JUMPDEST PUSH0 PUSH2 0xC26 DUP3 PUSH2 0x8D2 JUMP JUMPDEST SWAP2 POP PUSH2 0xC31 DUP4 PUSH2 0x8D2 JUMP JUMPDEST SWAP3 POP DUP3 DUP3 MUL PUSH2 0xC3F DUP2 PUSH2 0x8D2 JUMP JUMPDEST SWAP2 POP DUP3 DUP3 DIV DUP5 EQ DUP4 ISZERO OR PUSH2 0xC56 JUMPI PUSH2 0xC55 PUSH2 0xBBC JUMP JUMPDEST JUMPDEST POP SWAP3 SWAP2 POP POP JUMP JUMPDEST PUSH0 PUSH1 0x60 DUP3 ADD SWAP1 POP PUSH2 0xC70 PUSH0 DUP4 ADD DUP7 PUSH2 0x8DB JUMP JUMPDEST PUSH2 0xC7D PUSH1 0x20 DUP4 ADD DUP6 PUSH2 0x8DB JUMP JUMPDEST PUSH2 0xC8A PUSH1 0x40 DUP4 ADD DUP5 PUSH2 0x8DB JUMP JUMPDEST SWAP5 SWAP4 POP POP POP POP JUMP JUMPDEST PUSH32 0x5573657220616C72656164792072656769737465726564000000000000000000 PUSH0 DUP3 ADD MSTORE POP JUMP JUMPDEST PUSH0 PUSH2 0xCC6 PUSH1 0x17 DUP4 PUSH2 0xADC JUMP JUMPDEST SWAP2 POP PUSH2 0xCD1 DUP3 PUSH2 0xC92 JUMP JUMPDEST PUSH1 0x20 DUP3 ADD SWAP1 POP SWAP2 SWAP1 POP JUMP JUMPDEST PUSH0 PUSH1 0x20 DUP3 ADD SWAP1 POP DUP2 DUP2 SUB PUSH0 DUP4 ADD MSTORE PUSH2 0xCF3 DUP2 PUSH2 0xCBA JUMP JUMPDEST SWAP1 POP SWAP2 SWAP1 POP JUMP INVALID LOG2 PUSH5 0x6970667358 0x22 SLT KECCAK256 SELFBALANCE TLOAD 0xB0 0xB4 PUSH17 0x8E66F82FF9A338299EF51D2E7150328D0B MSIZE PUSH28 0xED5FCD0E074FE1EB64736F6C634300081A0033000000000000000000 "
				},
				"gasEstimates": {
					"creation": {
						"codeDepositCost": "675200",
						"executionCost": "47077",
						"totalCost": "722277"
					},
					"external": {
						"claimRewards()": "infinite",
						"getUserData(address)": "infinite",
						"owner()": "2530",
						"registerUser()": "48126",
						"rewardPerStep()": "2426",
						"updateHealthData(uint256,uint256,uint256)": "infinite",
						"users(address)": "infinite"
					}
				},
				"methodIdentifiers": {
					"claimRewards()": "372500ab",
					"getUserData(address)": "ffc9896b",
					"owner()": "8da5cb5b",
					"registerUser()": "4d3820eb",
					"rewardPerStep()": "05eddade",
					"updateHealthData(uint256,uint256,uint256)": "3b431af7",
					"users(address)": "a87430ba"
				}
			},
			"storageLayout": {
				"storage": [
					{
						"astId": 17,
						"contract": "Fit2Earn.sol:Fit2Earn",
						"label": "users",
						"offset": 0,
						"slot": "0",
						"type": "t_mapping(t_address,t_struct(User)12_storage)"
					},
					{
						"astId": 19,
						"contract": "Fit2Earn.sol:Fit2Earn",
						"label": "owner",
						"offset": 0,
						"slot": "1",
						"type": "t_address"
					},
					{
						"astId": 22,
						"contract": "Fit2Earn.sol:Fit2Earn",
						"label": "rewardPerStep",
						"offset": 0,
						"slot": "2",
						"type": "t_uint256"
					}
				],
				"types": {
					"t_address": {
						"encoding": "inplace",
						"label": "address",
						"numberOfBytes": "20"
					},
					"t_bool": {
						"encoding": "inplace",
						"label": "bool",
						"numberOfBytes": "1"
					},
					"t_mapping(t_address,t_struct(User)12_storage)": {
						"encoding": "mapping",
						"key": "t_address",
						"label": "mapping(address => struct Fit2Earn.User)",
						"numberOfBytes": "32",
						"value": "t_struct(User)12_storage"
					},
					"t_struct(User)12_storage": {
						"encoding": "inplace",
						"label": "struct Fit2Earn.User",
						"members": [
							{
								"astId": 3,
								"contract": "Fit2Earn.sol:Fit2Earn",
								"label": "steps",
								"offset": 0,
								"slot": "0",
								"type": "t_uint256"
							},
							{
								"astId": 5,
								"contract": "Fit2Earn.sol:Fit2Earn",
								"label": "heartRate",
								"offset": 0,
								"slot": "1",
								"type": "t_uint256"
							},
							{
								"astId": 7,
								"contract": "Fit2Earn.sol:Fit2Earn",
								"label": "bloodPressure",
								"offset": 0,
								"slot": "2",
								"type": "t_uint256"
							},
							{
								"astId": 9,
								"contract": "Fit2Earn.sol:Fit2Earn",
								"label": "rewards",
								"offset": 0,
								"slot": "3",
								"type": "t_uint256"
							},
							{
								"astId": 11,
								"contract": "Fit2Earn.sol:Fit2Earn",
								"label": "registered",
								"offset": 0,
								"slot": "4",
								"type": "t_bool"
							}
						],
						"numberOfBytes": "160"
					},
					"t_uint256": {
						"encoding": "inplace",
						"label": "uint256",
						"numberOfBytes": "32"
					}
				}
			},
			"userdoc": {
				"kind": "user",
				"methods": {},
				"version": 1
			}
		}
	}
}